{
  "_format": "hh-sol-artifact-1",
  "contractName": "Inscrible",
  "sourceName": "contracts/Inscrible.sol",
  "abi": [
    {
      "inputs": [
        {
          "internalType": "address",
          "name": "friend_key",
          "type": "address"
        },
        {
          "internalType": "string",
          "name": "name",
          "type": "string"
        }
      ],
      "name": "addFriend",
      "outputs": [],
      "stateMutability": "nonpayable",
      "type": "function"
    },
    {
      "inputs": [
        {
          "internalType": "string",
          "name": "_imgHash",
          "type": "string"
        },
        {
          "internalType": "string",
          "name": "desc",
          "type": "string"
        },
        {
          "internalType": "string",
          "name": "imgText",
          "type": "string"
        }
      ],
      "name": "addPostImage",
      "outputs": [],
      "stateMutability": "nonpayable",
      "type": "function"
    },
    {
      "inputs": [
        {
          "internalType": "address",
          "name": "key",
          "type": "address"
        }
      ],
      "name": "checkUser",
      "outputs": [
        {
          "internalType": "bool",
          "name": "",
          "type": "bool"
        }
      ],
      "stateMutability": "view",
      "type": "function"
    },
    {
      "inputs": [
        {
          "internalType": "string",
          "name": "_username",
          "type": "string"
        }
      ],
      "name": "createAccount",
      "outputs": [],
      "stateMutability": "nonpayable",
      "type": "function"
    },
    {
      "inputs": [],
      "name": "getAllAppUser",
      "outputs": [
        {
          "components": [
            {
              "internalType": "string",
              "name": "username",
              "type": "string"
            },
            {
              "internalType": "address",
              "name": "accountAddress",
              "type": "address"
            }
          ],
          "internalType": "struct Inscrible.AllUserStruck[]",
          "name": "",
          "type": "tuple[]"
        }
      ],
      "stateMutability": "view",
      "type": "function"
    },
    {
      "inputs": [],
      "name": "getAllPosts",
      "outputs": [
        {
          "components": [
            {
              "internalType": "string",
              "name": "createrName",
              "type": "string"
            },
            {
              "internalType": "address payable",
              "name": "userAddress",
              "type": "address"
            },
            {
              "internalType": "string",
              "name": "imageHash",
              "type": "string"
            },
            {
              "internalType": "string",
              "name": "caption",
              "type": "string"
            },
            {
              "internalType": "string",
              "name": "imageText",
              "type": "string"
            },
            {
              "internalType": "uint256",
              "name": "tipAmount",
              "type": "uint256"
            },
            {
              "internalType": "uint256",
              "name": "id",
              "type": "uint256"
            },
            {
              "internalType": "uint256",
              "name": "likeCount",
              "type": "uint256"
            },
            {
              "internalType": "string[]",
              "name": "likedByUser",
              "type": "string[]"
            }
          ],
          "internalType": "struct Inscrible.Post[]",
          "name": "",
          "type": "tuple[]"
        }
      ],
      "stateMutability": "view",
      "type": "function"
    },
    {
      "inputs": [],
      "name": "getMyFriendList",
      "outputs": [
        {
          "components": [
            {
              "internalType": "address",
              "name": "pubkey",
              "type": "address"
            },
            {
              "internalType": "string",
              "name": "name",
              "type": "string"
            }
          ],
          "internalType": "struct Inscrible.friend[]",
          "name": "",
          "type": "tuple[]"
        }
      ],
      "stateMutability": "view",
      "type": "function"
    },
    {
      "inputs": [
        {
          "internalType": "address",
          "name": "key",
          "type": "address"
        }
      ],
      "name": "getSingleUserLatestPost",
      "outputs": [
        {
          "components": [
            {
              "internalType": "string",
              "name": "createrName",
              "type": "string"
            },
            {
              "internalType": "address payable",
              "name": "userAddress",
              "type": "address"
            },
            {
              "internalType": "string",
              "name": "imageHash",
              "type": "string"
            },
            {
              "internalType": "string",
              "name": "caption",
              "type": "string"
            },
            {
              "internalType": "string",
              "name": "imageText",
              "type": "string"
            },
            {
              "internalType": "uint256",
              "name": "tipAmount",
              "type": "uint256"
            },
            {
              "internalType": "uint256",
              "name": "id",
              "type": "uint256"
            },
            {
              "internalType": "uint256",
              "name": "likeCount",
              "type": "uint256"
            },
            {
              "internalType": "string[]",
              "name": "likedByUser",
              "type": "string[]"
            }
          ],
          "internalType": "struct Inscrible.Post",
          "name": "",
          "type": "tuple"
        }
      ],
      "stateMutability": "view",
      "type": "function"
    },
    {
      "inputs": [
        {
          "internalType": "address",
          "name": "key",
          "type": "address"
        }
      ],
      "name": "getSingleUserPost",
      "outputs": [
        {
          "components": [
            {
              "internalType": "string",
              "name": "createrName",
              "type": "string"
            },
            {
              "internalType": "address payable",
              "name": "userAddress",
              "type": "address"
            },
            {
              "internalType": "string",
              "name": "imageHash",
              "type": "string"
            },
            {
              "internalType": "string",
              "name": "caption",
              "type": "string"
            },
            {
              "internalType": "string",
              "name": "imageText",
              "type": "string"
            },
            {
              "internalType": "uint256",
              "name": "tipAmount",
              "type": "uint256"
            },
            {
              "internalType": "uint256",
              "name": "id",
              "type": "uint256"
            },
            {
              "internalType": "uint256",
              "name": "likeCount",
              "type": "uint256"
            },
            {
              "internalType": "string[]",
              "name": "likedByUser",
              "type": "string[]"
            }
          ],
          "internalType": "struct Inscrible.Post[]",
          "name": "",
          "type": "tuple[]"
        }
      ],
      "stateMutability": "view",
      "type": "function"
    },
    {
      "inputs": [
        {
          "internalType": "address",
          "name": "key",
          "type": "address"
        }
      ],
      "name": "getUsername",
      "outputs": [
        {
          "internalType": "string",
          "name": "",
          "type": "string"
        }
      ],
      "stateMutability": "view",
      "type": "function"
    },
    {
      "inputs": [
        {
          "internalType": "address",
          "name": "friend_key",
          "type": "address"
        }
      ],
      "name": "readMessage",
      "outputs": [
        {
          "components": [
            {
              "internalType": "address",
              "name": "sender",
              "type": "address"
            },
            {
              "internalType": "uint256",
              "name": "timestamp",
              "type": "uint256"
            },
            {
              "internalType": "string",
              "name": "msg",
              "type": "string"
            }
          ],
          "internalType": "struct Inscrible.Message[]",
          "name": "",
          "type": "tuple[]"
        }
      ],
      "stateMutability": "view",
      "type": "function"
    },
    {
      "inputs": [
        {
          "internalType": "address",
          "name": "friendAddress",
          "type": "address"
        }
      ],
      "name": "removeFriend",
      "outputs": [],
      "stateMutability": "nonpayable",
      "type": "function"
    },
    {
      "inputs": [
        {
          "internalType": "address",
          "name": "friend_key",
          "type": "address"
        },
        {
          "internalType": "string",
          "name": "_msg",
          "type": "string"
        }
      ],
      "name": "sendMessage",
      "outputs": [],
      "stateMutability": "nonpayable",
      "type": "function"
    },
    {
      "stateMutability": "payable",
      "type": "receive"
    }
  ],
  "bytecode": "0x6080604052600060015534801561001557600080fd5b50613c17806100256000396000f3fe6080604052600436106100c65760003560e01c8063734ee8e51161007f578063bd0f4d0d11610059578063bd0f4d0d14610283578063ce43c032146102ae578063de6f24bb146102eb578063f111439814610314576100cd565b8063734ee8e5146101f257806380cee8a51461022f578063a24d41de14610258576100cd565b80631e9d48cf146100d2578063255e9c111461010f578063298daf5b1461014c57806330561100146101755780633b9f708d146101a057806359737a54146101c9576100cd565b366100cd57005b600080fd5b3480156100de57600080fd5b506100f960048036038101906100f49190612ae2565b610351565b6040516101069190612b2a565b60405180910390f35b34801561011b57600080fd5b5061013660048036038101906101319190612ae2565b6103c3565b6040516101439190612d18565b60405180910390f35b34801561015857600080fd5b50610173600480360381019061016e9190612d9f565b610536565b005b34801561018157600080fd5b5061018a610721565b6040516101979190613072565b60405180910390f35b3480156101ac57600080fd5b506101c760048036038101906101c29190613094565b610b16565b005b3480156101d557600080fd5b506101f060048036038101906101eb9190613224565b610d8e565b005b3480156101fe57600080fd5b5061021960048036038101906102149190612ae2565b6111ff565b60405161022691906133ac565b60405180910390f35b34801561023b57600080fd5b5061025660048036038101906102519190612ae2565b61165c565b005b34801561026457600080fd5b5061026d6119d9565b60405161027a91906134cd565b60405180910390f35b34801561028f57600080fd5b50610298611b20565b6040516102a591906135ee565b60405180910390f35b3480156102ba57600080fd5b506102d560048036038101906102d09190612ae2565b611ca7565b6040516102e2919061365a565b60405180910390f35b3480156102f757600080fd5b50610312600480360381019061030d9190613094565b611d7b565b005b34801561032057600080fd5b5061033b60048036038101906103369190612ae2565b611f46565b6040516103489190613072565b60405180910390f35b60008060008054905011156103b9576000600260008473ffffffffffffffffffffffffffffffffffffffff1673ffffffffffffffffffffffffffffffffffffffff16815260200190815260200160002060000180546103af906136ab565b90501190506103be565b600090505b919050565b606060006103d13384612422565b905060046000828152602001908152602001600020805480602002602001604051908101604052809291908181526020016000905b8282101561052a57838290600052602060002090600302016040518060600160405290816000820160009054906101000a900473ffffffffffffffffffffffffffffffffffffffff1673ffffffffffffffffffffffffffffffffffffffff1673ffffffffffffffffffffffffffffffffffffffff16815260200160018201548152602001600282018054610499906136ab565b80601f01602080910402602001604051908101604052809291908181526020018280546104c5906136ab565b80156105125780601f106104e757610100808354040283529160200191610512565b820191906000526020600020905b8154815290600101906020018083116104f557829003601f168201915b50505050508152505081526020019060010190610406565b50505050915050919050565b6000151561054333610351565b151514610585576040517f08c379a000000000000000000000000000000000000000000000000000000000815260040161057c90613729565b60405180910390fd5b600082829050116105cb576040517f08c379a00000000000000000000000000000000000000000000000000000000081526004016105c290613795565b60405180910390fd5b8181600260003373ffffffffffffffffffffffffffffffffffffffff1673ffffffffffffffffffffffffffffffffffffffff168152602001908152602001600020600001919061061c929190612794565b506000604051806040016040528084848080601f016020809104026020016040519081016040528093929190818152602001838380828437600081840152601f19601f8201169050808301925050505050505081526020013373ffffffffffffffffffffffffffffffffffffffff16815250908060018154018082558091505060019003906000526020600020906002020160009091909190915060008201518160000190805190602001906106d392919061281a565b5060208201518160010160006101000a81548173ffffffffffffffffffffffffffffffffffffffff021916908373ffffffffffffffffffffffffffffffffffffffff16021790555050505050565b60606005805480602002602001604051908101604052809291908181526020016000905b82821015610b0d578382906000526020600020906009020160405180610120016040529081600082018054610779906136ab565b80601f01602080910402602001604051908101604052809291908181526020018280546107a5906136ab565b80156107f25780601f106107c7576101008083540402835291602001916107f2565b820191906000526020600020905b8154815290600101906020018083116107d557829003601f168201915b505050505081526020016001820160009054906101000a900473ffffffffffffffffffffffffffffffffffffffff1673ffffffffffffffffffffffffffffffffffffffff1673ffffffffffffffffffffffffffffffffffffffff168152602001600282018054610861906136ab565b80601f016020809104026020016040519081016040528092919081815260200182805461088d906136ab565b80156108da5780601f106108af576101008083540402835291602001916108da565b820191906000526020600020905b8154815290600101906020018083116108bd57829003601f168201915b505050505081526020016003820180546108f3906136ab565b80601f016020809104026020016040519081016040528092919081815260200182805461091f906136ab565b801561096c5780601f106109415761010080835404028352916020019161096c565b820191906000526020600020905b81548152906001019060200180831161094f57829003601f168201915b50505050508152602001600482018054610985906136ab565b80601f01602080910402602001604051908101604052809291908181526020018280546109b1906136ab565b80156109fe5780601f106109d3576101008083540402835291602001916109fe565b820191906000526020600020905b8154815290600101906020018083116109e157829003601f168201915b5050505050815260200160058201548152602001600682015481526020016007820154815260200160088201805480602002602001604051908101604052809291908181526020016000905b82821015610af6578382906000526020600020018054610a69906136ab565b80601f0160208091040260200160405190810160405280929190818152602001828054610a95906136ab565b8015610ae25780601f10610ab757610100808354040283529160200191610ae2565b820191906000526020600020905b815481529060010190602001808311610ac557829003601f168201915b505050505081526020019060010190610a4a565b505050508152505081526020019060010190610745565b50505050905090565b610b1f33610351565b610b5e576040517f08c379a0000000000000000000000000000000000000000000000000000000008152600401610b5590613801565b60405180910390fd5b610b6783610351565b610ba6576040517f08c379a0000000000000000000000000000000000000000000000000000000008152600401610b9d9061386d565b60405180910390fd5b8273ffffffffffffffffffffffffffffffffffffffff163373ffffffffffffffffffffffffffffffffffffffff161415610c15576040517f08c379a0000000000000000000000000000000000000000000000000000000008152600401610c0c906138ff565b60405180910390fd5b60001515610c2333856124ba565b151514610c65576040517f08c379a0000000000000000000000000000000000000000000000000000000008152600401610c5c9061396b565b60405180910390fd5b610cb4338484848080601f016020809104026020016040519081016040528093929190818152602001838380828437600081840152601f19601f8201169050808301925050505050505061268d565b610d898333600260003373ffffffffffffffffffffffffffffffffffffffff1673ffffffffffffffffffffffffffffffffffffffff1681526020019081526020016000206000018054610d06906136ab565b80601f0160208091040260200160405190810160405280929190818152602001828054610d32906136ab565b8015610d7f5780601f10610d5457610100808354040283529160200191610d7f565b820191906000526020600020905b815481529060010190602001808311610d6257829003601f168201915b505050505061268d565b505050565b610d9733610351565b610dd6576040517f08c379a0000000000000000000000000000000000000000000000000000000008152600401610dcd906139d7565b60405180910390fd5b6000835111610de457600080fd5b60016000815480929190610df790613a26565b91905055506000604051806101200160405280600260003373ffffffffffffffffffffffffffffffffffffffff1673ffffffffffffffffffffffffffffffffffffffff1681526020019081526020016000206000018054610e57906136ab565b80601f0160208091040260200160405190810160405280929190818152602001828054610e83906136ab565b8015610ed05780601f10610ea557610100808354040283529160200191610ed0565b820191906000526020600020905b815481529060010190602001808311610eb357829003601f168201915b505050505081526020013373ffffffffffffffffffffffffffffffffffffffff16815260200185815260200184815260200183815260200160008152602001600154815260200160008152602001600067ffffffffffffffff811115610f3957610f386130f9565b5b604051908082528060200260200182016040528015610f6c57816020015b6060815260200190600190039081610f575790505b508152509050600360003373ffffffffffffffffffffffffffffffffffffffff1673ffffffffffffffffffffffffffffffffffffffff1681526020019081526020016000208190806001815401808255809150506001900390600052602060002090600902016000909190919091506000820151816000019080519060200190610ff792919061281a565b5060208201518160010160006101000a81548173ffffffffffffffffffffffffffffffffffffffff021916908373ffffffffffffffffffffffffffffffffffffffff160217905550604082015181600201908051906020019061105b92919061281a565b50606082015181600301908051906020019061107892919061281a565b50608082015181600401908051906020019061109592919061281a565b5060a0820151816005015560c0820151816006015560e082015181600701556101008201518160080190805190602001906110d19291906128a0565b5050506005819080600181540180825580915050600190039060005260206000209060090201600090919091909150600082015181600001908051906020019061111c92919061281a565b5060208201518160010160006101000a81548173ffffffffffffffffffffffffffffffffffffffff021916908373ffffffffffffffffffffffffffffffffffffffff160217905550604082015181600201908051906020019061118092919061281a565b50606082015181600301908051906020019061119d92919061281a565b5060808201518160040190805190602001906111ba92919061281a565b5060a0820151816005015560c0820151816006015560e082015181600701556101008201518160080190805190602001906111f69291906128a0565b50505050505050565b611207612900565b600360008373ffffffffffffffffffffffffffffffffffffffff1673ffffffffffffffffffffffffffffffffffffffff1681526020019081526020016000206001600360008573ffffffffffffffffffffffffffffffffffffffff1673ffffffffffffffffffffffffffffffffffffffff168152602001908152602001600020805490506112959190613a6f565b815481106112a6576112a5613aa3565b5b9060005260206000209060090201604051806101200160405290816000820180546112d0906136ab565b80601f01602080910402602001604051908101604052809291908181526020018280546112fc906136ab565b80156113495780601f1061131e57610100808354040283529160200191611349565b820191906000526020600020905b81548152906001019060200180831161132c57829003601f168201915b505050505081526020016001820160009054906101000a900473ffffffffffffffffffffffffffffffffffffffff1673ffffffffffffffffffffffffffffffffffffffff1673ffffffffffffffffffffffffffffffffffffffff1681526020016002820180546113b8906136ab565b80601f01602080910402602001604051908101604052809291908181526020018280546113e4906136ab565b80156114315780601f1061140657610100808354040283529160200191611431565b820191906000526020600020905b81548152906001019060200180831161141457829003601f168201915b5050505050815260200160038201805461144a906136ab565b80601f0160208091040260200160405190810160405280929190818152602001828054611476906136ab565b80156114c35780601f10611498576101008083540402835291602001916114c3565b820191906000526020600020905b8154815290600101906020018083116114a657829003601f168201915b505050505081526020016004820180546114dc906136ab565b80601f0160208091040260200160405190810160405280929190818152602001828054611508906136ab565b80156115555780601f1061152a57610100808354040283529160200191611555565b820191906000526020600020905b81548152906001019060200180831161153857829003601f168201915b5050505050815260200160058201548152602001600682015481526020016007820154815260200160088201805480602002602001604051908101604052809291908181526020016000905b8282101561164d5783829060005260206000200180546115c0906136ab565b80601f01602080910402602001604051908101604052809291908181526020018280546115ec906136ab565b80156116395780601f1061160e57610100808354040283529160200191611639565b820191906000526020600020905b81548152906001019060200180831161161c57829003601f168201915b5050505050815260200190600101906115a1565b50505050815250509050919050565b6000806000905060005b600260003373ffffffffffffffffffffffffffffffffffffffff1673ffffffffffffffffffffffffffffffffffffffff1681526020019081526020016000206001018054905081101561178b578373ffffffffffffffffffffffffffffffffffffffff16600260003373ffffffffffffffffffffffffffffffffffffffff1673ffffffffffffffffffffffffffffffffffffffff168152602001908152602001600020600101828154811061171e5761171d613aa3565b5b906000526020600020906002020160000160009054906101000a900473ffffffffffffffffffffffffffffffffffffffff1673ffffffffffffffffffffffffffffffffffffffff161415611778578092506001915061178b565b808061178390613a26565b915050611666565b5080156119d457600260003373ffffffffffffffffffffffffffffffffffffffff1673ffffffffffffffffffffffffffffffffffffffff1681526020019081526020016000206001016001600260003373ffffffffffffffffffffffffffffffffffffffff1673ffffffffffffffffffffffffffffffffffffffff168152602001908152602001600020600101805490506118269190613a6f565b8154811061183757611836613aa3565b5b9060005260206000209060020201600260003373ffffffffffffffffffffffffffffffffffffffff1673ffffffffffffffffffffffffffffffffffffffff168152602001908152602001600020600101838154811061189957611898613aa3565b5b90600052602060002090600202016000820160009054906101000a900473ffffffffffffffffffffffffffffffffffffffff168160000160006101000a81548173ffffffffffffffffffffffffffffffffffffffff021916908373ffffffffffffffffffffffffffffffffffffffff1602179055506001820181600101908054611922906136ab565b61192d929190612962565b50905050600260003373ffffffffffffffffffffffffffffffffffffffff1673ffffffffffffffffffffffffffffffffffffffff16815260200190815260200160002060010180548061198357611982613ad2565b5b6001900381819060005260206000209060020201600080820160006101000a81549073ffffffffffffffffffffffffffffffffffffffff02191690556001820160006119cf91906129ef565b505090555b505050565b60606000805480602002602001604051908101604052809291908181526020016000905b82821015611b175783829060005260206000209060020201604051806040016040529081600082018054611a30906136ab565b80601f0160208091040260200160405190810160405280929190818152602001828054611a5c906136ab565b8015611aa95780601f10611a7e57610100808354040283529160200191611aa9565b820191906000526020600020905b815481529060010190602001808311611a8c57829003601f168201915b505050505081526020016001820160009054906101000a900473ffffffffffffffffffffffffffffffffffffffff1673ffffffffffffffffffffffffffffffffffffffff1673ffffffffffffffffffffffffffffffffffffffff1681525050815260200190600101906119fd565b50505050905090565b6060600260003373ffffffffffffffffffffffffffffffffffffffff1673ffffffffffffffffffffffffffffffffffffffff168152602001908152602001600020600101805480602002602001604051908101604052809291908181526020016000905b82821015611c9e57838290600052602060002090600202016040518060400160405290816000820160009054906101000a900473ffffffffffffffffffffffffffffffffffffffff1673ffffffffffffffffffffffffffffffffffffffff1673ffffffffffffffffffffffffffffffffffffffff168152602001600182018054611c0d906136ab565b80601f0160208091040260200160405190810160405280929190818152602001828054611c39906136ab565b8015611c865780601f10611c5b57610100808354040283529160200191611c86565b820191906000526020600020905b815481529060010190602001808311611c6957829003601f168201915b50505050508152505081526020019060010190611b84565b50505050905090565b6060600260008373ffffffffffffffffffffffffffffffffffffffff1673ffffffffffffffffffffffffffffffffffffffff1681526020019081526020016000206000018054611cf6906136ab565b80601f0160208091040260200160405190810160405280929190818152602001828054611d22906136ab565b8015611d6f5780601f10611d4457610100808354040283529160200191611d6f565b820191906000526020600020905b815481529060010190602001808311611d5257829003601f168201915b50505050509050919050565b611d8433610351565b611dc3576040517f08c379a0000000000000000000000000000000000000000000000000000000008152600401611dba90613801565b60405180910390fd5b611dcc83610351565b611e0b576040517f08c379a0000000000000000000000000000000000000000000000000000000008152600401611e0290613b4d565b60405180910390fd5b6000611e173385612422565b9050600060405180606001604052803373ffffffffffffffffffffffffffffffffffffffff16815260200142815260200185858080601f016020809104026020016040519081016040528093929190818152602001838380828437600081840152601f19601f8201169050808301925050505050505081525090506004600083815260200190815260200160002081908060018154018082558091505060019003906000526020600020906003020160009091909190915060008201518160000160006101000a81548173ffffffffffffffffffffffffffffffffffffffff021916908373ffffffffffffffffffffffffffffffffffffffff160217905550602082015181600101556040820151816002019080519060200190611f3c92919061281a565b5050505050505050565b60606000600360008473ffffffffffffffffffffffffffffffffffffffff1673ffffffffffffffffffffffffffffffffffffffff1681526020019081526020016000208054905011156123c557600360008373ffffffffffffffffffffffffffffffffffffffff1673ffffffffffffffffffffffffffffffffffffffff168152602001908152602001600020805480602002602001604051908101604052809291908181526020016000905b828210156123ba578382906000526020600020906009020160405180610120016040529081600082018054612026906136ab565b80601f0160208091040260200160405190810160405280929190818152602001828054612052906136ab565b801561209f5780601f106120745761010080835404028352916020019161209f565b820191906000526020600020905b81548152906001019060200180831161208257829003601f168201915b505050505081526020016001820160009054906101000a900473ffffffffffffffffffffffffffffffffffffffff1673ffffffffffffffffffffffffffffffffffffffff1673ffffffffffffffffffffffffffffffffffffffff16815260200160028201805461210e906136ab565b80601f016020809104026020016040519081016040528092919081815260200182805461213a906136ab565b80156121875780601f1061215c57610100808354040283529160200191612187565b820191906000526020600020905b81548152906001019060200180831161216a57829003601f168201915b505050505081526020016003820180546121a0906136ab565b80601f01602080910402602001604051908101604052809291908181526020018280546121cc906136ab565b80156122195780601f106121ee57610100808354040283529160200191612219565b820191906000526020600020905b8154815290600101906020018083116121fc57829003601f168201915b50505050508152602001600482018054612232906136ab565b80601f016020809104026020016040519081016040528092919081815260200182805461225e906136ab565b80156122ab5780601f10612280576101008083540402835291602001916122ab565b820191906000526020600020905b81548152906001019060200180831161228e57829003601f168201915b5050505050815260200160058201548152602001600682015481526020016007820154815260200160088201805480602002602001604051908101604052809291908181526020016000905b828210156123a3578382906000526020600020018054612316906136ab565b80601f0160208091040260200160405190810160405280929190818152602001828054612342906136ab565b801561238f5780601f106123645761010080835404028352916020019161238f565b820191906000526020600020905b81548152906001019060200180831161237257829003601f168201915b5050505050815260200190600101906122f7565b505050508152505081526020019060010190611ff2565b50505050905061241d565b600067ffffffffffffffff8111156123e0576123df6130f9565b5b60405190808252806020026020018201604052801561241957816020015b612406612900565b8152602001906001900390816123fe5790505b5090505b919050565b60008173ffffffffffffffffffffffffffffffffffffffff168373ffffffffffffffffffffffffffffffffffffffff16101561248857828260405160200161246b929190613bb5565b6040516020818303038152906040528051906020012090506124b4565b818360405160200161249b929190613bb5565b6040516020818303038152906040528051906020012090505b92915050565b6000600260008373ffffffffffffffffffffffffffffffffffffffff1673ffffffffffffffffffffffffffffffffffffffff16815260200190815260200160002060010180549050600260008573ffffffffffffffffffffffffffffffffffffffff1673ffffffffffffffffffffffffffffffffffffffff16815260200190815260200160002060010180549050111561255b576000839050829350809250505b60005b600260008573ffffffffffffffffffffffffffffffffffffffff1673ffffffffffffffffffffffffffffffffffffffff16815260200190815260200160002060010180549050811015612681578273ffffffffffffffffffffffffffffffffffffffff16600260008673ffffffffffffffffffffffffffffffffffffffff1673ffffffffffffffffffffffffffffffffffffffff168152602001908152602001600020600101828154811061261657612615613aa3565b5b906000526020600020906002020160000160009054906101000a900473ffffffffffffffffffffffffffffffffffffffff1673ffffffffffffffffffffffffffffffffffffffff16141561266e576001915050612687565b808061267990613a26565b91505061255e565b50600090505b92915050565b600060405180604001604052808473ffffffffffffffffffffffffffffffffffffffff168152602001838152509050600260008573ffffffffffffffffffffffffffffffffffffffff1673ffffffffffffffffffffffffffffffffffffffff16815260200190815260200160002060010181908060018154018082558091505060019003906000526020600020906002020160009091909190915060008201518160000160006101000a81548173ffffffffffffffffffffffffffffffffffffffff021916908373ffffffffffffffffffffffffffffffffffffffff160217905550602082015181600101908051906020019061278b92919061281a565b50505050505050565b8280546127a0906136ab565b90600052602060002090601f0160209004810192826127c25760008555612809565b82601f106127db57803560ff1916838001178555612809565b82800160010185558215612809579182015b828111156128085782358255916020019190600101906127ed565b5b5090506128169190612a2f565b5090565b828054612826906136ab565b90600052602060002090601f016020900481019282612848576000855561288f565b82601f1061286157805160ff191683800117855561288f565b8280016001018555821561288f579182015b8281111561288e578251825591602001919060010190612873565b5b50905061289c9190612a2f565b5090565b8280548282559060005260206000209081019282156128ef579160200282015b828111156128ee5782518290805190602001906128de92919061281a565b50916020019190600101906128c0565b5b5090506128fc9190612a4c565b5090565b60405180610120016040528060608152602001600073ffffffffffffffffffffffffffffffffffffffff168152602001606081526020016060815260200160608152602001600081526020016000815260200160008152602001606081525090565b82805461296e906136ab565b90600052602060002090601f01602090048101928261299057600085556129de565b82601f106129a157805485556129de565b828001600101855582156129de57600052602060002091601f016020900482015b828111156129dd5782548255916001019190600101906129c2565b5b5090506129eb9190612a2f565b5090565b5080546129fb906136ab565b6000825580601f10612a0d5750612a2c565b601f016020900490600052602060002090810190612a2b9190612a2f565b5b50565b5b80821115612a48576000816000905550600101612a30565b5090565b5b80821115612a6c5760008181612a6391906129ef565b50600101612a4d565b5090565b6000604051905090565b600080fd5b600080fd5b600073ffffffffffffffffffffffffffffffffffffffff82169050919050565b6000612aaf82612a84565b9050919050565b612abf81612aa4565b8114612aca57600080fd5b50565b600081359050612adc81612ab6565b92915050565b600060208284031215612af857612af7612a7a565b5b6000612b0684828501612acd565b91505092915050565b60008115159050919050565b612b2481612b0f565b82525050565b6000602082019050612b3f6000830184612b1b565b92915050565b600081519050919050565b600082825260208201905092915050565b6000819050602082019050919050565b612b7a81612aa4565b82525050565b6000819050919050565b612b9381612b80565b82525050565b600081519050919050565b600082825260208201905092915050565b60005b83811015612bd3578082015181840152602081019050612bb8565b83811115612be2576000848401525b50505050565b6000601f19601f8301169050919050565b6000612c0482612b99565b612c0e8185612ba4565b9350612c1e818560208601612bb5565b612c2781612be8565b840191505092915050565b6000606083016000830151612c4a6000860182612b71565b506020830151612c5d6020860182612b8a565b5060408301518482036040860152612c758282612bf9565b9150508091505092915050565b6000612c8e8383612c32565b905092915050565b6000602082019050919050565b6000612cae82612b45565b612cb88185612b50565b935083602082028501612cca85612b61565b8060005b85811015612d065784840389528151612ce78582612c82565b9450612cf283612c96565b925060208a01995050600181019050612cce565b50829750879550505050505092915050565b60006020820190508181036000830152612d328184612ca3565b905092915050565b600080fd5b600080fd5b600080fd5b60008083601f840112612d5f57612d5e612d3a565b5b8235905067ffffffffffffffff811115612d7c57612d7b612d3f565b5b602083019150836001820283011115612d9857612d97612d44565b5b9250929050565b60008060208385031215612db657612db5612a7a565b5b600083013567ffffffffffffffff811115612dd457612dd3612a7f565b5b612de085828601612d49565b92509250509250929050565b600081519050919050565b600082825260208201905092915050565b6000819050602082019050919050565b6000612e2382612a84565b9050919050565b612e3381612e18565b82525050565b600081519050919050565b600082825260208201905092915050565b6000819050602082019050919050565b6000612e718383612bf9565b905092915050565b6000602082019050919050565b6000612e9182612e39565b612e9b8185612e44565b935083602082028501612ead85612e55565b8060005b85811015612ee95784840389528151612eca8582612e65565b9450612ed583612e79565b925060208a01995050600181019050612eb1565b50829750879550505050505092915050565b6000610120830160008301518482036000860152612f198282612bf9565b9150506020830151612f2e6020860182612e2a565b5060408301518482036040860152612f468282612bf9565b91505060608301518482036060860152612f608282612bf9565b91505060808301518482036080860152612f7a8282612bf9565b91505060a0830151612f8f60a0860182612b8a565b5060c0830151612fa260c0860182612b8a565b5060e0830151612fb560e0860182612b8a565b50610100830151848203610100860152612fcf8282612e86565b9150508091505092915050565b6000612fe88383612efb565b905092915050565b6000602082019050919050565b600061300882612dec565b6130128185612df7565b93508360208202850161302485612e08565b8060005b8581101561306057848403895281516130418582612fdc565b945061304c83612ff0565b925060208a01995050600181019050613028565b50829750879550505050505092915050565b6000602082019050818103600083015261308c8184612ffd565b905092915050565b6000806000604084860312156130ad576130ac612a7a565b5b60006130bb86828701612acd565b935050602084013567ffffffffffffffff8111156130dc576130db612a7f565b5b6130e886828701612d49565b92509250509250925092565b600080fd5b7f4e487b7100000000000000000000000000000000000000000000000000000000600052604160045260246000fd5b61313182612be8565b810181811067ffffffffffffffff821117156131505761314f6130f9565b5b80604052505050565b6000613163612a70565b905061316f8282613128565b919050565b600067ffffffffffffffff82111561318f5761318e6130f9565b5b61319882612be8565b9050602081019050919050565b82818337600083830152505050565b60006131c76131c284613174565b613159565b9050828152602081018484840111156131e3576131e26130f4565b5b6131ee8482856131a5565b509392505050565b600082601f83011261320b5761320a612d3a565b5b813561321b8482602086016131b4565b91505092915050565b60008060006060848603121561323d5761323c612a7a565b5b600084013567ffffffffffffffff81111561325b5761325a612a7f565b5b613267868287016131f6565b935050602084013567ffffffffffffffff81111561328857613287612a7f565b5b613294868287016131f6565b925050604084013567ffffffffffffffff8111156132b5576132b4612a7f565b5b6132c1868287016131f6565b9150509250925092565b60006101208301600083015184820360008601526132e98282612bf9565b91505060208301516132fe6020860182612e2a565b50604083015184820360408601526133168282612bf9565b915050606083015184820360608601526133308282612bf9565b9150506080830151848203608086015261334a8282612bf9565b91505060a083015161335f60a0860182612b8a565b5060c083015161337260c0860182612b8a565b5060e083015161338560e0860182612b8a565b5061010083015184820361010086015261339f8282612e86565b9150508091505092915050565b600060208201905081810360008301526133c681846132cb565b905092915050565b600081519050919050565b600082825260208201905092915050565b6000819050602082019050919050565b600060408301600083015184820360008601526134178282612bf9565b915050602083015161342c6020860182612b71565b508091505092915050565b600061344383836133fa565b905092915050565b6000602082019050919050565b6000613463826133ce565b61346d81856133d9565b93508360208202850161347f856133ea565b8060005b858110156134bb578484038952815161349c8582613437565b94506134a78361344b565b925060208a01995050600181019050613483565b50829750879550505050505092915050565b600060208201905081810360008301526134e78184613458565b905092915050565b600081519050919050565b600082825260208201905092915050565b6000819050602082019050919050565b60006040830160008301516135336000860182612b71565b506020830151848203602086015261354b8282612bf9565b9150508091505092915050565b6000613564838361351b565b905092915050565b6000602082019050919050565b6000613584826134ef565b61358e81856134fa565b9350836020820285016135a08561350b565b8060005b858110156135dc57848403895281516135bd8582613558565b94506135c88361356c565b925060208a019950506001810190506135a4565b50829750879550505050505092915050565b600060208201905081810360008301526136088184613579565b905092915050565b600082825260208201905092915050565b600061362c82612b99565b6136368185613610565b9350613646818560208601612bb5565b61364f81612be8565b840191505092915050565b600060208201905081810360008301526136748184613621565b905092915050565b7f4e487b7100000000000000000000000000000000000000000000000000000000600052602260045260246000fd5b600060028204905060018216806136c357607f821691505b602082108114156136d7576136d661367c565b5b50919050565b7f5573657220616c726564792068617320616e206163636f756e74210000000000600082015250565b6000613713601b83613610565b915061371e826136dd565b602082019050919050565b6000602082019050818103600083015261374281613706565b9050919050565b7f55736572206e616d652073686f756c64206e6f7420626520656d707479210000600082015250565b600061377f601e83613610565b915061378a82613749565b602082019050919050565b600060208201905081810360008301526137ae81613772565b9050919050565b7f43726561746520616e206163636f756e74206669727374000000000000000000600082015250565b60006137eb601783613610565b91506137f6826137b5565b602082019050919050565b6000602082019050818103600083015261381a816137de565b9050919050565b7f55736572206973206e6f74207265676973746572656421000000000000000000600082015250565b6000613857601783613610565b915061386282613821565b602082019050919050565b600060208201905081810360008301526138868161384a565b9050919050565b7f55736572732063616e6e6f7420616464207468656d6573656c7665732061732060008201527f667269656e647300000000000000000000000000000000000000000000000000602082015250565b60006138e9602783613610565b91506138f48261388d565b604082019050919050565b60006020820190508181036000830152613918816138dc565b9050919050565b7f54686573652075736572732061726520616c726561647920667269656e647300600082015250565b6000613955601f83613610565b91506139608261391f565b602082019050919050565b6000602082019050818103600083015261398481613948565b9050919050565b7f55736572206e6f74207265676973746572656421000000000000000000000000600082015250565b60006139c1601483613610565b91506139cc8261398b565b602082019050919050565b600060208201905081810360008301526139f0816139b4565b9050919050565b7f4e487b7100000000000000000000000000000000000000000000000000000000600052601160045260246000fd5b6000613a3182612b80565b91507fffffffffffffffffffffffffffffffffffffffffffffffffffffffffffffffff821415613a6457613a636139f7565b5b600182019050919050565b6000613a7a82612b80565b9150613a8583612b80565b925082821015613a9857613a976139f7565b5b828203905092915050565b7f4e487b7100000000000000000000000000000000000000000000000000000000600052603260045260246000fd5b7f4e487b7100000000000000000000000000000000000000000000000000000000600052603160045260246000fd5b7f55736572206973206e6f74207265676973746572656400000000000000000000600082015250565b6000613b37601683613610565b9150613b4282613b01565b602082019050919050565b60006020820190508181036000830152613b6681613b2a565b9050919050565b60008160601b9050919050565b6000613b8582613b6d565b9050919050565b6000613b9782613b7a565b9050919050565b613baf613baa82612aa4565b613b8c565b82525050565b6000613bc18285613b9e565b601482019150613bd18284613b9e565b601482019150819050939250505056fea2646970667358221220abe8d95a4b407d2c1cc3f0d606882968f771c07e3289a715189b0f58e721fba364736f6c63430008090033",
  "linkReferences": {},
  "deployedLinkReferences": {}
}