{
  "_format": "hh-sol-artifact-1",
  "contractName": "Inscrible",
  "sourceName": "contracts/Inscrible.sol",
  "abi": [
    {
      "inputs": [
        {
          "internalType": "address",
          "name": "friend_key",
          "type": "address"
        }
      ],
      "name": "addFriend",
      "outputs": [],
      "stateMutability": "nonpayable",
      "type": "function"
    },
    {
      "inputs": [
        {
          "internalType": "string",
          "name": "_imgHash",
          "type": "string"
        },
        {
          "internalType": "string",
          "name": "desc",
          "type": "string"
        },
        {
          "internalType": "string",
          "name": "imgText",
          "type": "string"
        }
      ],
      "name": "addPostImage",
      "outputs": [],
      "stateMutability": "nonpayable",
      "type": "function"
    },
    {
      "inputs": [
        {
          "internalType": "address",
          "name": "me",
          "type": "address"
        },
        {
          "internalType": "address",
          "name": "following_key",
          "type": "address"
        }
      ],
      "name": "checkAlreadyFriends",
      "outputs": [
        {
          "internalType": "bool",
          "name": "",
          "type": "bool"
        }
      ],
      "stateMutability": "view",
      "type": "function"
    },
    {
      "inputs": [
        {
          "internalType": "address",
          "name": "key",
          "type": "address"
        }
      ],
      "name": "checkUser",
      "outputs": [
        {
          "internalType": "bool",
          "name": "",
          "type": "bool"
        }
      ],
      "stateMutability": "view",
      "type": "function"
    },
    {
      "inputs": [
        {
          "internalType": "string",
          "name": "_username",
          "type": "string"
        }
      ],
      "name": "createAccount",
      "outputs": [],
      "stateMutability": "nonpayable",
      "type": "function"
    },
    {
      "inputs": [],
      "name": "getAllAppUser",
      "outputs": [
        {
          "components": [
            {
              "internalType": "string",
              "name": "username",
              "type": "string"
            },
            {
              "internalType": "address",
              "name": "accountAddress",
              "type": "address"
            }
          ],
          "internalType": "struct Inscrible.AllUserStruck[]",
          "name": "",
          "type": "tuple[]"
        }
      ],
      "stateMutability": "view",
      "type": "function"
    },
    {
      "inputs": [],
      "name": "getAllPosts",
      "outputs": [
        {
          "components": [
            {
              "internalType": "string",
              "name": "createrName",
              "type": "string"
            },
            {
              "internalType": "address payable",
              "name": "userAddress",
              "type": "address"
            },
            {
              "internalType": "string",
              "name": "imageHash",
              "type": "string"
            },
            {
              "internalType": "string",
              "name": "caption",
              "type": "string"
            },
            {
              "internalType": "string",
              "name": "imageText",
              "type": "string"
            },
            {
              "internalType": "uint256",
              "name": "tipAmount",
              "type": "uint256"
            },
            {
              "internalType": "uint256",
              "name": "id",
              "type": "uint256"
            },
            {
              "internalType": "uint256",
              "name": "likeCount",
              "type": "uint256"
            },
            {
              "internalType": "string[]",
              "name": "likedByUser",
              "type": "string[]"
            }
          ],
          "internalType": "struct Inscrible.Post[]",
          "name": "",
          "type": "tuple[]"
        }
      ],
      "stateMutability": "view",
      "type": "function"
    },
    {
      "inputs": [
        {
          "internalType": "address",
          "name": "_user",
          "type": "address"
        }
      ],
      "name": "getMyFollowersList",
      "outputs": [
        {
          "components": [
            {
              "internalType": "address",
              "name": "pubkey",
              "type": "address"
            },
            {
              "internalType": "string",
              "name": "name",
              "type": "string"
            }
          ],
          "internalType": "struct Inscrible.friend[]",
          "name": "",
          "type": "tuple[]"
        }
      ],
      "stateMutability": "view",
      "type": "function"
    },
    {
      "inputs": [
        {
          "internalType": "address",
          "name": "_user",
          "type": "address"
        }
      ],
      "name": "getMyFollowingsList",
      "outputs": [
        {
          "components": [
            {
              "internalType": "address",
              "name": "pubkey",
              "type": "address"
            },
            {
              "internalType": "string",
              "name": "name",
              "type": "string"
            }
          ],
          "internalType": "struct Inscrible.friend[]",
          "name": "",
          "type": "tuple[]"
        }
      ],
      "stateMutability": "view",
      "type": "function"
    },
    {
      "inputs": [
        {
          "internalType": "address",
          "name": "key",
          "type": "address"
        }
      ],
      "name": "getSingleUserLatestPost",
      "outputs": [
        {
          "components": [
            {
              "internalType": "string",
              "name": "createrName",
              "type": "string"
            },
            {
              "internalType": "address payable",
              "name": "userAddress",
              "type": "address"
            },
            {
              "internalType": "string",
              "name": "imageHash",
              "type": "string"
            },
            {
              "internalType": "string",
              "name": "caption",
              "type": "string"
            },
            {
              "internalType": "string",
              "name": "imageText",
              "type": "string"
            },
            {
              "internalType": "uint256",
              "name": "tipAmount",
              "type": "uint256"
            },
            {
              "internalType": "uint256",
              "name": "id",
              "type": "uint256"
            },
            {
              "internalType": "uint256",
              "name": "likeCount",
              "type": "uint256"
            },
            {
              "internalType": "string[]",
              "name": "likedByUser",
              "type": "string[]"
            }
          ],
          "internalType": "struct Inscrible.Post",
          "name": "",
          "type": "tuple"
        }
      ],
      "stateMutability": "view",
      "type": "function"
    },
    {
      "inputs": [
        {
          "internalType": "address",
          "name": "key",
          "type": "address"
        }
      ],
      "name": "getSingleUserPost",
      "outputs": [
        {
          "components": [
            {
              "internalType": "string",
              "name": "createrName",
              "type": "string"
            },
            {
              "internalType": "address payable",
              "name": "userAddress",
              "type": "address"
            },
            {
              "internalType": "string",
              "name": "imageHash",
              "type": "string"
            },
            {
              "internalType": "string",
              "name": "caption",
              "type": "string"
            },
            {
              "internalType": "string",
              "name": "imageText",
              "type": "string"
            },
            {
              "internalType": "uint256",
              "name": "tipAmount",
              "type": "uint256"
            },
            {
              "internalType": "uint256",
              "name": "id",
              "type": "uint256"
            },
            {
              "internalType": "uint256",
              "name": "likeCount",
              "type": "uint256"
            },
            {
              "internalType": "string[]",
              "name": "likedByUser",
              "type": "string[]"
            }
          ],
          "internalType": "struct Inscrible.Post[]",
          "name": "",
          "type": "tuple[]"
        }
      ],
      "stateMutability": "view",
      "type": "function"
    },
    {
      "inputs": [
        {
          "internalType": "address",
          "name": "key",
          "type": "address"
        }
      ],
      "name": "getUsername",
      "outputs": [
        {
          "internalType": "string",
          "name": "",
          "type": "string"
        }
      ],
      "stateMutability": "view",
      "type": "function"
    },
    {
      "inputs": [
        {
          "internalType": "address",
          "name": "friend_key",
          "type": "address"
        }
      ],
      "name": "readMessage",
      "outputs": [
        {
          "components": [
            {
              "internalType": "address",
              "name": "sender",
              "type": "address"
            },
            {
              "internalType": "uint256",
              "name": "timestamp",
              "type": "uint256"
            },
            {
              "internalType": "string",
              "name": "msg",
              "type": "string"
            }
          ],
          "internalType": "struct Inscrible.Message[]",
          "name": "",
          "type": "tuple[]"
        }
      ],
      "stateMutability": "view",
      "type": "function"
    },
    {
      "inputs": [
        {
          "internalType": "address",
          "name": "followerAddress",
          "type": "address"
        }
      ],
      "name": "removeFollower",
      "outputs": [],
      "stateMutability": "nonpayable",
      "type": "function"
    },
    {
      "inputs": [
        {
          "internalType": "address",
          "name": "followingAddress",
          "type": "address"
        }
      ],
      "name": "removeFriend",
      "outputs": [],
      "stateMutability": "nonpayable",
      "type": "function"
    },
    {
      "inputs": [
        {
          "internalType": "address",
          "name": "friend_key",
          "type": "address"
        },
        {
          "internalType": "string",
          "name": "_msg",
          "type": "string"
        }
      ],
      "name": "sendMessage",
      "outputs": [],
      "stateMutability": "nonpayable",
      "type": "function"
    },
    {
      "stateMutability": "payable",
      "type": "receive"
    }
  ],
  "bytecode": "0x60806040526000805534801561001457600080fd5b50614dd1806100246000396000f3fe6080604052600436106100f75760003560e01c806380cee8a51161008a578063ce43c03211610059578063ce43c0321461036b578063d7a1cfe1146103a8578063de6f24bb146103d1578063f1114398146103fa576100fe565b806380cee8a51461029d578063a24d41de146102c6578063aed84e7b146102f1578063b9a4134f1461032e576100fe565b8063308837ed116100c6578063308837ed146101d157806359737a54146101fa578063734ee8e51461022357806373fc70b014610260576100fe565b80631e9d48cf14610103578063255e9c1114610140578063298daf5b1461017d57806330561100146101a6576100fe565b366100fe57005b600080fd5b34801561010f57600080fd5b5061012a60048036038101906101259190613c5c565b610437565b6040516101379190613ca4565b60405180910390f35b34801561014c57600080fd5b5061016760048036038101906101629190613c5c565b6104a9565b6040516101749190613e92565b60405180910390f35b34801561018957600080fd5b506101a4600480360381019061019f9190613f19565b61061c565b005b3480156101b257600080fd5b506101bb610807565b6040516101c891906141ec565b60405180910390f35b3480156101dd57600080fd5b506101f860048036038101906101f39190613c5c565b610bfc565b005b34801561020657600080fd5b50610221600480360381019061021c919061433e565b6112f8565b005b34801561022f57600080fd5b5061024a60048036038101906102459190613c5c565b611b18565b60405161025791906144c6565b60405180910390f35b34801561026c57600080fd5b5061028760048036038101906102829190613c5c565b611f75565b60405161029491906145e7565b60405180910390f35b3480156102a957600080fd5b506102c460048036038101906102bf9190613c5c565b6120fe565b005b3480156102d257600080fd5b506102db6127fa565b6040516102e89190614708565b60405180910390f35b3480156102fd57600080fd5b5061031860048036038101906103139190613c5c565b612941565b60405161032591906145e7565b60405180910390f35b34801561033a57600080fd5b506103556004803603810190610350919061472a565b612aca565b6040516103629190613ca4565b60405180910390f35b34801561037757600080fd5b50610392600480360381019061038d9190613c5c565b612c01565b60405161039f91906147b4565b60405180910390f35b3480156103b457600080fd5b506103cf60048036038101906103ca9190613c5c565b612cd5565b005b3480156103dd57600080fd5b506103f860048036038101906103f391906147d6565b612efc565b005b34801561040657600080fd5b50610421600480360381019061041c9190613c5c565b6130c7565b60405161042e91906141ec565b60405180910390f35b600080600580549050111561049f576000600160008473ffffffffffffffffffffffffffffffffffffffff1673ffffffffffffffffffffffffffffffffffffffff168152602001908152602001600020600001805461049590614865565b90501190506104a4565b600090505b919050565b606060006104b733846135a3565b905060036000828152602001908152602001600020805480602002602001604051908101604052809291908181526020016000905b8282101561061057838290600052602060002090600302016040518060600160405290816000820160009054906101000a900473ffffffffffffffffffffffffffffffffffffffff1673ffffffffffffffffffffffffffffffffffffffff1673ffffffffffffffffffffffffffffffffffffffff1681526020016001820154815260200160028201805461057f90614865565b80601f01602080910402602001604051908101604052809291908181526020018280546105ab90614865565b80156105f85780601f106105cd576101008083540402835291602001916105f8565b820191906000526020600020905b8154815290600101906020018083116105db57829003601f168201915b505050505081525050815260200190600101906104ec565b50505050915050919050565b6000151561062933610437565b15151461066b576040517f08c379a0000000000000000000000000000000000000000000000000000000008152600401610662906148e3565b60405180910390fd5b600082829050116106b1576040517f08c379a00000000000000000000000000000000000000000000000000000000081526004016106a89061494f565b60405180910390fd5b8181600160003373ffffffffffffffffffffffffffffffffffffffff1673ffffffffffffffffffffffffffffffffffffffff168152602001908152602001600020600001919061070292919061390e565b506005604051806040016040528084848080601f016020809104026020016040519081016040528093929190818152602001838380828437600081840152601f19601f8201169050808301925050505050505081526020013373ffffffffffffffffffffffffffffffffffffffff16815250908060018154018082558091505060019003906000526020600020906002020160009091909190915060008201518160000190805190602001906107b9929190613994565b5060208201518160010160006101000a81548173ffffffffffffffffffffffffffffffffffffffff021916908373ffffffffffffffffffffffffffffffffffffffff16021790555050505050565b60606004805480602002602001604051908101604052809291908181526020016000905b82821015610bf357838290600052602060002090600902016040518061012001604052908160008201805461085f90614865565b80601f016020809104026020016040519081016040528092919081815260200182805461088b90614865565b80156108d85780601f106108ad576101008083540402835291602001916108d8565b820191906000526020600020905b8154815290600101906020018083116108bb57829003601f168201915b505050505081526020016001820160009054906101000a900473ffffffffffffffffffffffffffffffffffffffff1673ffffffffffffffffffffffffffffffffffffffff1673ffffffffffffffffffffffffffffffffffffffff16815260200160028201805461094790614865565b80601f016020809104026020016040519081016040528092919081815260200182805461097390614865565b80156109c05780601f10610995576101008083540402835291602001916109c0565b820191906000526020600020905b8154815290600101906020018083116109a357829003601f168201915b505050505081526020016003820180546109d990614865565b80601f0160208091040260200160405190810160405280929190818152602001828054610a0590614865565b8015610a525780601f10610a2757610100808354040283529160200191610a52565b820191906000526020600020905b815481529060010190602001808311610a3557829003601f168201915b50505050508152602001600482018054610a6b90614865565b80601f0160208091040260200160405190810160405280929190818152602001828054610a9790614865565b8015610ae45780601f10610ab957610100808354040283529160200191610ae4565b820191906000526020600020905b815481529060010190602001808311610ac757829003601f168201915b5050505050815260200160058201548152602001600682015481526020016007820154815260200160088201805480602002602001604051908101604052809291908181526020016000905b82821015610bdc578382906000526020600020018054610b4f90614865565b80601f0160208091040260200160405190810160405280929190818152602001828054610b7b90614865565b8015610bc85780601f10610b9d57610100808354040283529160200191610bc8565b820191906000526020600020905b815481529060010190602001808311610bab57829003601f168201915b505050505081526020019060010190610b30565b50505050815250508152602001906001019061082b565b50505050905090565b6000806000905060005b600160003373ffffffffffffffffffffffffffffffffffffffff1673ffffffffffffffffffffffffffffffffffffffff16815260200190815260200160002060010180549050811015610d2b578373ffffffffffffffffffffffffffffffffffffffff16600160003373ffffffffffffffffffffffffffffffffffffffff1673ffffffffffffffffffffffffffffffffffffffff1681526020019081526020016000206001018281548110610cbe57610cbd61496f565b5b906000526020600020906002020160000160009054906101000a900473ffffffffffffffffffffffffffffffffffffffff1673ffffffffffffffffffffffffffffffffffffffff161415610d185780925060019150610d2b565b8080610d23906149cd565b915050610c06565b508015610f7357600160003373ffffffffffffffffffffffffffffffffffffffff1673ffffffffffffffffffffffffffffffffffffffff16815260200190815260200160002060010160018060003373ffffffffffffffffffffffffffffffffffffffff1673ffffffffffffffffffffffffffffffffffffffff16815260200190815260200160002060010180549050610dc59190614a16565b81548110610dd657610dd561496f565b5b9060005260206000209060020201600160003373ffffffffffffffffffffffffffffffffffffffff1673ffffffffffffffffffffffffffffffffffffffff1681526020019081526020016000206001018381548110610e3857610e3761496f565b5b90600052602060002090600202016000820160009054906101000a900473ffffffffffffffffffffffffffffffffffffffff168160000160006101000a81548173ffffffffffffffffffffffffffffffffffffffff021916908373ffffffffffffffffffffffffffffffffffffffff1602179055506001820181600101908054610ec190614865565b610ecc929190613a1a565b50905050600160003373ffffffffffffffffffffffffffffffffffffffff1673ffffffffffffffffffffffffffffffffffffffff168152602001908152602001600020600101805480610f2257610f21614a4a565b5b6001900381819060005260206000209060020201600080820160006101000a81549073ffffffffffffffffffffffffffffffffffffffff0219169055600182016000610f6e9190613aa7565b505090555b6000806000905060005b600160008773ffffffffffffffffffffffffffffffffffffffff1673ffffffffffffffffffffffffffffffffffffffff168152602001908152602001600020600201805490508110156110a2573373ffffffffffffffffffffffffffffffffffffffff16600160008873ffffffffffffffffffffffffffffffffffffffff1673ffffffffffffffffffffffffffffffffffffffff16815260200190815260200160002060020182815481106110355761103461496f565b5b906000526020600020906002020160000160009054906101000a900473ffffffffffffffffffffffffffffffffffffffff1673ffffffffffffffffffffffffffffffffffffffff16141561108f57809250600191506110a2565b808061109a906149cd565b915050610f7d565b5080156112f1576000600160008773ffffffffffffffffffffffffffffffffffffffff1673ffffffffffffffffffffffffffffffffffffffff168152602001908152602001600020600201805490509050600160008773ffffffffffffffffffffffffffffffffffffffff1673ffffffffffffffffffffffffffffffffffffffff1681526020019081526020016000206002016001826111429190614a16565b815481106111535761115261496f565b5b9060005260206000209060020201600160008873ffffffffffffffffffffffffffffffffffffffff1673ffffffffffffffffffffffffffffffffffffffff16815260200190815260200160002060020184815481106111b5576111b461496f565b5b90600052602060002090600202016000820160009054906101000a900473ffffffffffffffffffffffffffffffffffffffff168160000160006101000a81548173ffffffffffffffffffffffffffffffffffffffff021916908373ffffffffffffffffffffffffffffffffffffffff160217905550600182018160010190805461123e90614865565b611249929190613a1a565b50905050600160008773ffffffffffffffffffffffffffffffffffffffff1673ffffffffffffffffffffffffffffffffffffffff16815260200190815260200160002060020180548061129f5761129e614a4a565b5b6001900381819060005260206000209060020201600080820160006101000a81549073ffffffffffffffffffffffffffffffffffffffff02191690556001820160006112eb9190613aa7565b50509055505b5050505050565b61130133610437565b611340576040517f08c379a000000000000000000000000000000000000000000000000000000000815260040161133790614ac5565b60405180910390fd5b600083511161134e57600080fd5b600080815480929190611360906149cd565b91905055506000604051806101200160405280600160003373ffffffffffffffffffffffffffffffffffffffff1673ffffffffffffffffffffffffffffffffffffffff16815260200190815260200160002060000180546113c090614865565b80601f01602080910402602001604051908101604052809291908181526020018280546113ec90614865565b80156114395780601f1061140e57610100808354040283529160200191611439565b820191906000526020600020905b81548152906001019060200180831161141c57829003601f168201915b505050505081526020013373ffffffffffffffffffffffffffffffffffffffff16815260200185815260200184815260200183815260200160008152602001600054815260200160008152602001600067ffffffffffffffff8111156114a2576114a1614213565b5b6040519080825280602002602001820160405280156114d557816020015b60608152602001906001900390816114c05790505b50815250905060005b600160003373ffffffffffffffffffffffffffffffffffffffff1673ffffffffffffffffffffffffffffffffffffffff168152602001908152602001600020600101805490508110156117255760026000600160003373ffffffffffffffffffffffffffffffffffffffff1673ffffffffffffffffffffffffffffffffffffffff16815260200190815260200160002060010183815481106115835761158261496f565b5b906000526020600020906002020160000160009054906101000a900473ffffffffffffffffffffffffffffffffffffffff1673ffffffffffffffffffffffffffffffffffffffff1673ffffffffffffffffffffffffffffffffffffffff1681526020019081526020016000208290806001815401808255809150506001900390600052602060002090600902016000909190919091506000820151816000019080519060200190611635929190613994565b5060208201518160010160006101000a81548173ffffffffffffffffffffffffffffffffffffffff021916908373ffffffffffffffffffffffffffffffffffffffff1602179055506040820151816002019080519060200190611699929190613994565b5060608201518160030190805190602001906116b6929190613994565b5060808201518160040190805190602001906116d3929190613994565b5060a0820151816005015560c0820151816006015560e0820151816007015561010082015181600801908051906020019061170f929190613ae7565b505050808061171d906149cd565b9150506114de565b50600160003373ffffffffffffffffffffffffffffffffffffffff1673ffffffffffffffffffffffffffffffffffffffff16815260200190815260200160002060030181908060018154018082558091505060019003906000526020600020906009020160009091909190915060008201518160000190805190602001906117ae929190613994565b5060208201518160010160006101000a81548173ffffffffffffffffffffffffffffffffffffffff021916908373ffffffffffffffffffffffffffffffffffffffff1602179055506040820151816002019080519060200190611812929190613994565b50606082015181600301908051906020019061182f929190613994565b50608082015181600401908051906020019061184c929190613994565b5060a0820151816005015560c0820151816006015560e08201518160070155610100820151816008019080519060200190611888929190613ae7565b505050600260003373ffffffffffffffffffffffffffffffffffffffff1673ffffffffffffffffffffffffffffffffffffffff1681526020019081526020016000208190806001815401808255809150506001900390600052602060002090600902016000909190919091506000820151816000019080519060200190611910929190613994565b5060208201518160010160006101000a81548173ffffffffffffffffffffffffffffffffffffffff021916908373ffffffffffffffffffffffffffffffffffffffff1602179055506040820151816002019080519060200190611974929190613994565b506060820151816003019080519060200190611991929190613994565b5060808201518160040190805190602001906119ae929190613994565b5060a0820151816005015560c0820151816006015560e082015181600701556101008201518160080190805190602001906119ea929190613ae7565b50505060048190806001815401808255809150506001900390600052602060002090600902016000909190919091506000820151816000019080519060200190611a35929190613994565b5060208201518160010160006101000a81548173ffffffffffffffffffffffffffffffffffffffff021916908373ffffffffffffffffffffffffffffffffffffffff1602179055506040820151816002019080519060200190611a99929190613994565b506060820151816003019080519060200190611ab6929190613994565b506080820151816004019080519060200190611ad3929190613994565b5060a0820151816005015560c0820151816006015560e08201518160070155610100820151816008019080519060200190611b0f929190613ae7565b50505050505050565b611b20613b47565b600260008373ffffffffffffffffffffffffffffffffffffffff1673ffffffffffffffffffffffffffffffffffffffff1681526020019081526020016000206001600260008573ffffffffffffffffffffffffffffffffffffffff1673ffffffffffffffffffffffffffffffffffffffff16815260200190815260200160002080549050611bae9190614a16565b81548110611bbf57611bbe61496f565b5b906000526020600020906009020160405180610120016040529081600082018054611be990614865565b80601f0160208091040260200160405190810160405280929190818152602001828054611c1590614865565b8015611c625780601f10611c3757610100808354040283529160200191611c62565b820191906000526020600020905b815481529060010190602001808311611c4557829003601f168201915b505050505081526020016001820160009054906101000a900473ffffffffffffffffffffffffffffffffffffffff1673ffffffffffffffffffffffffffffffffffffffff1673ffffffffffffffffffffffffffffffffffffffff168152602001600282018054611cd190614865565b80601f0160208091040260200160405190810160405280929190818152602001828054611cfd90614865565b8015611d4a5780601f10611d1f57610100808354040283529160200191611d4a565b820191906000526020600020905b815481529060010190602001808311611d2d57829003601f168201915b50505050508152602001600382018054611d6390614865565b80601f0160208091040260200160405190810160405280929190818152602001828054611d8f90614865565b8015611ddc5780601f10611db157610100808354040283529160200191611ddc565b820191906000526020600020905b815481529060010190602001808311611dbf57829003601f168201915b50505050508152602001600482018054611df590614865565b80601f0160208091040260200160405190810160405280929190818152602001828054611e2190614865565b8015611e6e5780601f10611e4357610100808354040283529160200191611e6e565b820191906000526020600020905b815481529060010190602001808311611e5157829003601f168201915b5050505050815260200160058201548152602001600682015481526020016007820154815260200160088201805480602002602001604051908101604052809291908181526020016000905b82821015611f66578382906000526020600020018054611ed990614865565b80601f0160208091040260200160405190810160405280929190818152602001828054611f0590614865565b8015611f525780601f10611f2757610100808354040283529160200191611f52565b820191906000526020600020905b815481529060010190602001808311611f3557829003601f168201915b505050505081526020019060010190611eba565b50505050815250509050919050565b6060600160008373ffffffffffffffffffffffffffffffffffffffff1673ffffffffffffffffffffffffffffffffffffffff168152602001908152602001600020600101805480602002602001604051908101604052809291908181526020016000905b828210156120f357838290600052602060002090600202016040518060400160405290816000820160009054906101000a900473ffffffffffffffffffffffffffffffffffffffff1673ffffffffffffffffffffffffffffffffffffffff1673ffffffffffffffffffffffffffffffffffffffff16815260200160018201805461206290614865565b80601f016020809104026020016040519081016040528092919081815260200182805461208e90614865565b80156120db5780601f106120b0576101008083540402835291602001916120db565b820191906000526020600020905b8154815290600101906020018083116120be57829003601f168201915b50505050508152505081526020019060010190611fd9565b505050509050919050565b6000806000905060005b600160008573ffffffffffffffffffffffffffffffffffffffff1673ffffffffffffffffffffffffffffffffffffffff1681526020019081526020016000206001018054905081101561222d573373ffffffffffffffffffffffffffffffffffffffff16600160008673ffffffffffffffffffffffffffffffffffffffff1673ffffffffffffffffffffffffffffffffffffffff16815260200190815260200160002060010182815481106121c0576121bf61496f565b5b906000526020600020906002020160000160009054906101000a900473ffffffffffffffffffffffffffffffffffffffff1673ffffffffffffffffffffffffffffffffffffffff16141561221a578092506001915061222d565b8080612225906149cd565b915050612108565b50801561247557600160008473ffffffffffffffffffffffffffffffffffffffff1673ffffffffffffffffffffffffffffffffffffffff16815260200190815260200160002060010160018060008673ffffffffffffffffffffffffffffffffffffffff1673ffffffffffffffffffffffffffffffffffffffff168152602001908152602001600020600101805490506122c79190614a16565b815481106122d8576122d761496f565b5b9060005260206000209060020201600160008573ffffffffffffffffffffffffffffffffffffffff1673ffffffffffffffffffffffffffffffffffffffff168152602001908152602001600020600101838154811061233a5761233961496f565b5b90600052602060002090600202016000820160009054906101000a900473ffffffffffffffffffffffffffffffffffffffff168160000160006101000a81548173ffffffffffffffffffffffffffffffffffffffff021916908373ffffffffffffffffffffffffffffffffffffffff16021790555060018201816001019080546123c390614865565b6123ce929190613a1a565b50905050600160008473ffffffffffffffffffffffffffffffffffffffff1673ffffffffffffffffffffffffffffffffffffffff16815260200190815260200160002060010180548061242457612423614a4a565b5b6001900381819060005260206000209060020201600080820160006101000a81549073ffffffffffffffffffffffffffffffffffffffff02191690556001820160006124709190613aa7565b505090555b6000806000905060005b600160003373ffffffffffffffffffffffffffffffffffffffff1673ffffffffffffffffffffffffffffffffffffffff168152602001908152602001600020600201805490508110156125a4578573ffffffffffffffffffffffffffffffffffffffff16600160003373ffffffffffffffffffffffffffffffffffffffff1673ffffffffffffffffffffffffffffffffffffffff16815260200190815260200160002060020182815481106125375761253661496f565b5b906000526020600020906002020160000160009054906101000a900473ffffffffffffffffffffffffffffffffffffffff1673ffffffffffffffffffffffffffffffffffffffff16141561259157809250600191506125a4565b808061259c906149cd565b91505061247f565b5080156127f3576000600160003373ffffffffffffffffffffffffffffffffffffffff1673ffffffffffffffffffffffffffffffffffffffff168152602001908152602001600020600201805490509050600160003373ffffffffffffffffffffffffffffffffffffffff1673ffffffffffffffffffffffffffffffffffffffff1681526020019081526020016000206002016001826126449190614a16565b815481106126555761265461496f565b5b9060005260206000209060020201600160003373ffffffffffffffffffffffffffffffffffffffff1673ffffffffffffffffffffffffffffffffffffffff16815260200190815260200160002060020184815481106126b7576126b661496f565b5b90600052602060002090600202016000820160009054906101000a900473ffffffffffffffffffffffffffffffffffffffff168160000160006101000a81548173ffffffffffffffffffffffffffffffffffffffff021916908373ffffffffffffffffffffffffffffffffffffffff160217905550600182018160010190805461274090614865565b61274b929190613a1a565b50905050600160003373ffffffffffffffffffffffffffffffffffffffff1673ffffffffffffffffffffffffffffffffffffffff1681526020019081526020016000206002018054806127a1576127a0614a4a565b5b6001900381819060005260206000209060020201600080820160006101000a81549073ffffffffffffffffffffffffffffffffffffffff02191690556001820160006127ed9190613aa7565b50509055505b5050505050565b60606005805480602002602001604051908101604052809291908181526020016000905b82821015612938578382906000526020600020906002020160405180604001604052908160008201805461285190614865565b80601f016020809104026020016040519081016040528092919081815260200182805461287d90614865565b80156128ca5780601f1061289f576101008083540402835291602001916128ca565b820191906000526020600020905b8154815290600101906020018083116128ad57829003601f168201915b505050505081526020016001820160009054906101000a900473ffffffffffffffffffffffffffffffffffffffff1673ffffffffffffffffffffffffffffffffffffffff1673ffffffffffffffffffffffffffffffffffffffff16815250508152602001906001019061281e565b50505050905090565b6060600160008373ffffffffffffffffffffffffffffffffffffffff1673ffffffffffffffffffffffffffffffffffffffff168152602001908152602001600020600201805480602002602001604051908101604052809291908181526020016000905b82821015612abf57838290600052602060002090600202016040518060400160405290816000820160009054906101000a900473ffffffffffffffffffffffffffffffffffffffff1673ffffffffffffffffffffffffffffffffffffffff1673ffffffffffffffffffffffffffffffffffffffff168152602001600182018054612a2e90614865565b80601f0160208091040260200160405190810160405280929190818152602001828054612a5a90614865565b8015612aa75780601f10612a7c57610100808354040283529160200191612aa7565b820191906000526020600020905b815481529060010190602001808311612a8a57829003601f168201915b505050505081525050815260200190600101906129a5565b505050509050919050565b600080600090505b600160008473ffffffffffffffffffffffffffffffffffffffff1673ffffffffffffffffffffffffffffffffffffffff16815260200190815260200160002060010180549050811015612bf5578373ffffffffffffffffffffffffffffffffffffffff16600160008573ffffffffffffffffffffffffffffffffffffffff1673ffffffffffffffffffffffffffffffffffffffff1681526020019081526020016000206001018281548110612b8a57612b8961496f565b5b906000526020600020906002020160000160009054906101000a900473ffffffffffffffffffffffffffffffffffffffff1673ffffffffffffffffffffffffffffffffffffffff161415612be2576001915050612bfb565b8080612bed906149cd565b915050612ad2565b50600090505b92915050565b6060600160008373ffffffffffffffffffffffffffffffffffffffff1673ffffffffffffffffffffffffffffffffffffffff1681526020019081526020016000206000018054612c5090614865565b80601f0160208091040260200160405190810160405280929190818152602001828054612c7c90614865565b8015612cc95780601f10612c9e57610100808354040283529160200191612cc9565b820191906000526020600020905b815481529060010190602001808311612cac57829003601f168201915b50505050509050919050565b612cde33610437565b612d1d576040517f08c379a0000000000000000000000000000000000000000000000000000000008152600401612d1490614b31565b60405180910390fd5b612d2681610437565b612d65576040517f08c379a0000000000000000000000000000000000000000000000000000000008152600401612d5c90614b9d565b60405180910390fd5b8073ffffffffffffffffffffffffffffffffffffffff163373ffffffffffffffffffffffffffffffffffffffff161415612dd4576040517f08c379a0000000000000000000000000000000000000000000000000000000008152600401612dcb90614c2f565b60405180910390fd5b60001515612de23383612aca565b151514612e24576040517f08c379a0000000000000000000000000000000000000000000000000000000008152600401612e1b90614c9b565b60405180910390fd5b612ef98133600160003373ffffffffffffffffffffffffffffffffffffffff1673ffffffffffffffffffffffffffffffffffffffff1681526020019081526020016000206000018054612e7690614865565b80601f0160208091040260200160405190810160405280929190818152602001828054612ea290614865565b8015612eef5780601f10612ec457610100808354040283529160200191612eef565b820191906000526020600020905b815481529060010190602001808311612ed257829003601f168201915b505050505061363b565b50565b612f0533610437565b612f44576040517f08c379a0000000000000000000000000000000000000000000000000000000008152600401612f3b90614b31565b60405180910390fd5b612f4d83610437565b612f8c576040517f08c379a0000000000000000000000000000000000000000000000000000000008152600401612f8390614d07565b60405180910390fd5b6000612f9833856135a3565b9050600060405180606001604052803373ffffffffffffffffffffffffffffffffffffffff16815260200142815260200185858080601f016020809104026020016040519081016040528093929190818152602001838380828437600081840152601f19601f8201169050808301925050505050505081525090506003600083815260200190815260200160002081908060018154018082558091505060019003906000526020600020906003020160009091909190915060008201518160000160006101000a81548173ffffffffffffffffffffffffffffffffffffffff021916908373ffffffffffffffffffffffffffffffffffffffff1602179055506020820151816001015560408201518160020190805190602001906130bd929190613994565b5050505050505050565b60606000600260008473ffffffffffffffffffffffffffffffffffffffff1673ffffffffffffffffffffffffffffffffffffffff16815260200190815260200160002080549050111561354657600260008373ffffffffffffffffffffffffffffffffffffffff1673ffffffffffffffffffffffffffffffffffffffff168152602001908152602001600020805480602002602001604051908101604052809291908181526020016000905b8282101561353b5783829060005260206000209060090201604051806101200160405290816000820180546131a790614865565b80601f01602080910402602001604051908101604052809291908181526020018280546131d390614865565b80156132205780601f106131f557610100808354040283529160200191613220565b820191906000526020600020905b81548152906001019060200180831161320357829003601f168201915b505050505081526020016001820160009054906101000a900473ffffffffffffffffffffffffffffffffffffffff1673ffffffffffffffffffffffffffffffffffffffff1673ffffffffffffffffffffffffffffffffffffffff16815260200160028201805461328f90614865565b80601f01602080910402602001604051908101604052809291908181526020018280546132bb90614865565b80156133085780601f106132dd57610100808354040283529160200191613308565b820191906000526020600020905b8154815290600101906020018083116132eb57829003601f168201915b5050505050815260200160038201805461332190614865565b80601f016020809104026020016040519081016040528092919081815260200182805461334d90614865565b801561339a5780601f1061336f5761010080835404028352916020019161339a565b820191906000526020600020905b81548152906001019060200180831161337d57829003601f168201915b505050505081526020016004820180546133b390614865565b80601f01602080910402602001604051908101604052809291908181526020018280546133df90614865565b801561342c5780601f106134015761010080835404028352916020019161342c565b820191906000526020600020905b81548152906001019060200180831161340f57829003601f168201915b5050505050815260200160058201548152602001600682015481526020016007820154815260200160088201805480602002602001604051908101604052809291908181526020016000905b8282101561352457838290600052602060002001805461349790614865565b80601f01602080910402602001604051908101604052809291908181526020018280546134c390614865565b80156135105780601f106134e557610100808354040283529160200191613510565b820191906000526020600020905b8154815290600101906020018083116134f357829003601f168201915b505050505081526020019060010190613478565b505050508152505081526020019060010190613173565b50505050905061359e565b600067ffffffffffffffff81111561356157613560614213565b5b60405190808252806020026020018201604052801561359a57816020015b613587613b47565b81526020019060019003908161357f5790505b5090505b919050565b60008173ffffffffffffffffffffffffffffffffffffffff168373ffffffffffffffffffffffffffffffffffffffff1610156136095782826040516020016135ec929190614d6f565b604051602081830303815290604052805190602001209050613635565b818360405160200161361c929190614d6f565b6040516020818303038152906040528051906020012090505b92915050565b600060405180604001604052808473ffffffffffffffffffffffffffffffffffffffff168152602001838152509050600160008573ffffffffffffffffffffffffffffffffffffffff1673ffffffffffffffffffffffffffffffffffffffff16815260200190815260200160002060010181908060018154018082558091505060019003906000526020600020906002020160009091909190915060008201518160000160006101000a81548173ffffffffffffffffffffffffffffffffffffffff021916908373ffffffffffffffffffffffffffffffffffffffff1602179055506020820151816001019080519060200190613739929190613994565b505050600060405180604001604052808673ffffffffffffffffffffffffffffffffffffffff168152602001600160008873ffffffffffffffffffffffffffffffffffffffff1673ffffffffffffffffffffffffffffffffffffffff16815260200190815260200160002060000180546137b290614865565b80601f01602080910402602001604051908101604052809291908181526020018280546137de90614865565b801561382b5780601f106138005761010080835404028352916020019161382b565b820191906000526020600020905b81548152906001019060200180831161380e57829003601f168201915b50505050508152509050600160008573ffffffffffffffffffffffffffffffffffffffff1673ffffffffffffffffffffffffffffffffffffffff16815260200190815260200160002060020181908060018154018082558091505060019003906000526020600020906002020160009091909190915060008201518160000160006101000a81548173ffffffffffffffffffffffffffffffffffffffff021916908373ffffffffffffffffffffffffffffffffffffffff1602179055506020820151816001019080519060200190613904929190613994565b5050505050505050565b82805461391a90614865565b90600052602060002090601f01602090048101928261393c5760008555613983565b82601f1061395557803560ff1916838001178555613983565b82800160010185558215613983579182015b82811115613982578235825591602001919060010190613967565b5b5090506139909190613ba9565b5090565b8280546139a090614865565b90600052602060002090601f0160209004810192826139c25760008555613a09565b82601f106139db57805160ff1916838001178555613a09565b82800160010185558215613a09579182015b82811115613a085782518255916020019190600101906139ed565b5b509050613a169190613ba9565b5090565b828054613a2690614865565b90600052602060002090601f016020900481019282613a485760008555613a96565b82601f10613a595780548555613a96565b82800160010185558215613a9657600052602060002091601f016020900482015b82811115613a95578254825591600101919060010190613a7a565b5b509050613aa39190613ba9565b5090565b508054613ab390614865565b6000825580601f10613ac55750613ae4565b601f016020900490600052602060002090810190613ae39190613ba9565b5b50565b828054828255906000526020600020908101928215613b36579160200282015b82811115613b35578251829080519060200190613b25929190613994565b5091602001919060010190613b07565b5b509050613b439190613bc6565b5090565b60405180610120016040528060608152602001600073ffffffffffffffffffffffffffffffffffffffff168152602001606081526020016060815260200160608152602001600081526020016000815260200160008152602001606081525090565b5b80821115613bc2576000816000905550600101613baa565b5090565b5b80821115613be65760008181613bdd9190613aa7565b50600101613bc7565b5090565b6000604051905090565b600080fd5b600080fd5b600073ffffffffffffffffffffffffffffffffffffffff82169050919050565b6000613c2982613bfe565b9050919050565b613c3981613c1e565b8114613c4457600080fd5b50565b600081359050613c5681613c30565b92915050565b600060208284031215613c7257613c71613bf4565b5b6000613c8084828501613c47565b91505092915050565b60008115159050919050565b613c9e81613c89565b82525050565b6000602082019050613cb96000830184613c95565b92915050565b600081519050919050565b600082825260208201905092915050565b6000819050602082019050919050565b613cf481613c1e565b82525050565b6000819050919050565b613d0d81613cfa565b82525050565b600081519050919050565b600082825260208201905092915050565b60005b83811015613d4d578082015181840152602081019050613d32565b83811115613d5c576000848401525b50505050565b6000601f19601f8301169050919050565b6000613d7e82613d13565b613d888185613d1e565b9350613d98818560208601613d2f565b613da181613d62565b840191505092915050565b6000606083016000830151613dc46000860182613ceb565b506020830151613dd76020860182613d04565b5060408301518482036040860152613def8282613d73565b9150508091505092915050565b6000613e088383613dac565b905092915050565b6000602082019050919050565b6000613e2882613cbf565b613e328185613cca565b935083602082028501613e4485613cdb565b8060005b85811015613e805784840389528151613e618582613dfc565b9450613e6c83613e10565b925060208a01995050600181019050613e48565b50829750879550505050505092915050565b60006020820190508181036000830152613eac8184613e1d565b905092915050565b600080fd5b600080fd5b600080fd5b60008083601f840112613ed957613ed8613eb4565b5b8235905067ffffffffffffffff811115613ef657613ef5613eb9565b5b602083019150836001820283011115613f1257613f11613ebe565b5b9250929050565b60008060208385031215613f3057613f2f613bf4565b5b600083013567ffffffffffffffff811115613f4e57613f4d613bf9565b5b613f5a85828601613ec3565b92509250509250929050565b600081519050919050565b600082825260208201905092915050565b6000819050602082019050919050565b6000613f9d82613bfe565b9050919050565b613fad81613f92565b82525050565b600081519050919050565b600082825260208201905092915050565b6000819050602082019050919050565b6000613feb8383613d73565b905092915050565b6000602082019050919050565b600061400b82613fb3565b6140158185613fbe565b93508360208202850161402785613fcf565b8060005b8581101561406357848403895281516140448582613fdf565b945061404f83613ff3565b925060208a0199505060018101905061402b565b50829750879550505050505092915050565b60006101208301600083015184820360008601526140938282613d73565b91505060208301516140a86020860182613fa4565b50604083015184820360408601526140c08282613d73565b915050606083015184820360608601526140da8282613d73565b915050608083015184820360808601526140f48282613d73565b91505060a083015161410960a0860182613d04565b5060c083015161411c60c0860182613d04565b5060e083015161412f60e0860182613d04565b506101008301518482036101008601526141498282614000565b9150508091505092915050565b60006141628383614075565b905092915050565b6000602082019050919050565b600061418282613f66565b61418c8185613f71565b93508360208202850161419e85613f82565b8060005b858110156141da57848403895281516141bb8582614156565b94506141c68361416a565b925060208a019950506001810190506141a2565b50829750879550505050505092915050565b600060208201905081810360008301526142068184614177565b905092915050565b600080fd5b7f4e487b7100000000000000000000000000000000000000000000000000000000600052604160045260246000fd5b61424b82613d62565b810181811067ffffffffffffffff8211171561426a57614269614213565b5b80604052505050565b600061427d613bea565b90506142898282614242565b919050565b600067ffffffffffffffff8211156142a9576142a8614213565b5b6142b282613d62565b9050602081019050919050565b82818337600083830152505050565b60006142e16142dc8461428e565b614273565b9050828152602081018484840111156142fd576142fc61420e565b5b6143088482856142bf565b509392505050565b600082601f83011261432557614324613eb4565b5b81356143358482602086016142ce565b91505092915050565b60008060006060848603121561435757614356613bf4565b5b600084013567ffffffffffffffff81111561437557614374613bf9565b5b61438186828701614310565b935050602084013567ffffffffffffffff8111156143a2576143a1613bf9565b5b6143ae86828701614310565b925050604084013567ffffffffffffffff8111156143cf576143ce613bf9565b5b6143db86828701614310565b9150509250925092565b60006101208301600083015184820360008601526144038282613d73565b91505060208301516144186020860182613fa4565b50604083015184820360408601526144308282613d73565b9150506060830151848203606086015261444a8282613d73565b915050608083015184820360808601526144648282613d73565b91505060a083015161447960a0860182613d04565b5060c083015161448c60c0860182613d04565b5060e083015161449f60e0860182613d04565b506101008301518482036101008601526144b98282614000565b9150508091505092915050565b600060208201905081810360008301526144e081846143e5565b905092915050565b600081519050919050565b600082825260208201905092915050565b6000819050602082019050919050565b600060408301600083015161452c6000860182613ceb565b50602083015184820360208601526145448282613d73565b9150508091505092915050565b600061455d8383614514565b905092915050565b6000602082019050919050565b600061457d826144e8565b61458781856144f3565b93508360208202850161459985614504565b8060005b858110156145d557848403895281516145b68582614551565b94506145c183614565565b925060208a0199505060018101905061459d565b50829750879550505050505092915050565b600060208201905081810360008301526146018184614572565b905092915050565b600081519050919050565b600082825260208201905092915050565b6000819050602082019050919050565b600060408301600083015184820360008601526146528282613d73565b91505060208301516146676020860182613ceb565b508091505092915050565b600061467e8383614635565b905092915050565b6000602082019050919050565b600061469e82614609565b6146a88185614614565b9350836020820285016146ba85614625565b8060005b858110156146f657848403895281516146d78582614672565b94506146e283614686565b925060208a019950506001810190506146be565b50829750879550505050505092915050565b600060208201905081810360008301526147228184614693565b905092915050565b6000806040838503121561474157614740613bf4565b5b600061474f85828601613c47565b925050602061476085828601613c47565b9150509250929050565b600082825260208201905092915050565b600061478682613d13565b614790818561476a565b93506147a0818560208601613d2f565b6147a981613d62565b840191505092915050565b600060208201905081810360008301526147ce818461477b565b905092915050565b6000806000604084860312156147ef576147ee613bf4565b5b60006147fd86828701613c47565b935050602084013567ffffffffffffffff81111561481e5761481d613bf9565b5b61482a86828701613ec3565b92509250509250925092565b7f4e487b7100000000000000000000000000000000000000000000000000000000600052602260045260246000fd5b6000600282049050600182168061487d57607f821691505b6020821081141561489157614890614836565b5b50919050565b7f5573657220616c726564792068617320616e206163636f756e74210000000000600082015250565b60006148cd601b8361476a565b91506148d882614897565b602082019050919050565b600060208201905081810360008301526148fc816148c0565b9050919050565b7f55736572206e616d652073686f756c64206e6f7420626520656d707479210000600082015250565b6000614939601e8361476a565b915061494482614903565b602082019050919050565b600060208201905081810360008301526149688161492c565b9050919050565b7f4e487b7100000000000000000000000000000000000000000000000000000000600052603260045260246000fd5b7f4e487b7100000000000000000000000000000000000000000000000000000000600052601160045260246000fd5b60006149d882613cfa565b91507fffffffffffffffffffffffffffffffffffffffffffffffffffffffffffffffff821415614a0b57614a0a61499e565b5b600182019050919050565b6000614a2182613cfa565b9150614a2c83613cfa565b925082821015614a3f57614a3e61499e565b5b828203905092915050565b7f4e487b7100000000000000000000000000000000000000000000000000000000600052603160045260246000fd5b7f55736572206e6f74207265676973746572656421000000000000000000000000600082015250565b6000614aaf60148361476a565b9150614aba82614a79565b602082019050919050565b60006020820190508181036000830152614ade81614aa2565b9050919050565b7f43726561746520616e206163636f756e74206669727374000000000000000000600082015250565b6000614b1b60178361476a565b9150614b2682614ae5565b602082019050919050565b60006020820190508181036000830152614b4a81614b0e565b9050919050565b7f55736572206973206e6f74207265676973746572656421000000000000000000600082015250565b6000614b8760178361476a565b9150614b9282614b51565b602082019050919050565b60006020820190508181036000830152614bb681614b7a565b9050919050565b7f55736572732063616e6e6f7420616464207468656d6573656c7665732061732060008201527f667269656e647300000000000000000000000000000000000000000000000000602082015250565b6000614c1960278361476a565b9150614c2482614bbd565b604082019050919050565b60006020820190508181036000830152614c4881614c0c565b9050919050565b7f54686573652075736572732061726520616c726561647920667269656e647300600082015250565b6000614c85601f8361476a565b9150614c9082614c4f565b602082019050919050565b60006020820190508181036000830152614cb481614c78565b9050919050565b7f55736572206973206e6f74207265676973746572656400000000000000000000600082015250565b6000614cf160168361476a565b9150614cfc82614cbb565b602082019050919050565b60006020820190508181036000830152614d2081614ce4565b9050919050565b60008160601b9050919050565b6000614d3f82614d27565b9050919050565b6000614d5182614d34565b9050919050565b614d69614d6482613c1e565b614d46565b82525050565b6000614d7b8285614d58565b601482019150614d8b8284614d58565b601482019150819050939250505056fea26469706673582212207be70218940d9b0b153f8eb6f13b97c93ff996251f38a9390bcd1f7f309c194c64736f6c63430008090033",
  "linkReferences": {},
  "deployedLinkReferences": {}
}