{
  "_format": "hh-sol-artifact-1",
  "contractName": "Inscrible",
  "sourceName": "contracts/Inscrible.sol",
  "abi": [
    {
      "inputs": [
        {
          "internalType": "address",
          "name": "friend_key",
          "type": "address"
        }
      ],
      "name": "addFriend",
      "outputs": [],
      "stateMutability": "nonpayable",
      "type": "function"
    },
    {
      "inputs": [
        {
          "internalType": "string",
          "name": "_imgHash",
          "type": "string"
        },
        {
          "internalType": "string",
          "name": "desc",
          "type": "string"
        },
        {
          "internalType": "string",
          "name": "imgText",
          "type": "string"
        }
      ],
      "name": "addPostImage",
      "outputs": [],
      "stateMutability": "nonpayable",
      "type": "function"
    },
    {
      "inputs": [
        {
          "internalType": "address",
          "name": "me",
          "type": "address"
        },
        {
          "internalType": "address",
          "name": "following_key",
          "type": "address"
        }
      ],
      "name": "checkAlreadyFriends",
      "outputs": [
        {
          "internalType": "bool",
          "name": "",
          "type": "bool"
        }
      ],
      "stateMutability": "view",
      "type": "function"
    },
    {
      "inputs": [
        {
          "internalType": "address",
          "name": "key",
          "type": "address"
        }
      ],
      "name": "checkUser",
      "outputs": [
        {
          "internalType": "bool",
          "name": "",
          "type": "bool"
        }
      ],
      "stateMutability": "view",
      "type": "function"
    },
    {
      "inputs": [
        {
          "internalType": "string",
          "name": "_username",
          "type": "string"
        }
      ],
      "name": "createAccount",
      "outputs": [],
      "stateMutability": "nonpayable",
      "type": "function"
    },
    {
      "inputs": [],
      "name": "getAllAppUser",
      "outputs": [
        {
          "components": [
            {
              "internalType": "string",
              "name": "username",
              "type": "string"
            },
            {
              "internalType": "address",
              "name": "accountAddress",
              "type": "address"
            }
          ],
          "internalType": "struct Inscrible.AllUserStruck[]",
          "name": "",
          "type": "tuple[]"
        }
      ],
      "stateMutability": "view",
      "type": "function"
    },
    {
      "inputs": [],
      "name": "getAllPosts",
      "outputs": [
        {
          "components": [
            {
              "internalType": "string",
              "name": "createrName",
              "type": "string"
            },
            {
              "internalType": "address payable",
              "name": "userAddress",
              "type": "address"
            },
            {
              "internalType": "string",
              "name": "imageHash",
              "type": "string"
            },
            {
              "internalType": "string",
              "name": "caption",
              "type": "string"
            },
            {
              "internalType": "string",
              "name": "imageText",
              "type": "string"
            },
            {
              "internalType": "uint256",
              "name": "tipAmount",
              "type": "uint256"
            },
            {
              "internalType": "uint256",
              "name": "id",
              "type": "uint256"
            },
            {
              "internalType": "uint256",
              "name": "likeCount",
              "type": "uint256"
            },
            {
              "internalType": "string[]",
              "name": "likedByUser",
              "type": "string[]"
            }
          ],
          "internalType": "struct Inscrible.Post[]",
          "name": "",
          "type": "tuple[]"
        }
      ],
      "stateMutability": "view",
      "type": "function"
    },
    {
      "inputs": [
        {
          "internalType": "address",
          "name": "_user",
          "type": "address"
        }
      ],
      "name": "getMyFollowersList",
      "outputs": [
        {
          "components": [
            {
              "internalType": "address",
              "name": "pubkey",
              "type": "address"
            },
            {
              "internalType": "string",
              "name": "name",
              "type": "string"
            }
          ],
          "internalType": "struct Inscrible.friend[]",
          "name": "",
          "type": "tuple[]"
        }
      ],
      "stateMutability": "view",
      "type": "function"
    },
    {
      "inputs": [
        {
          "internalType": "address",
          "name": "_user",
          "type": "address"
        }
      ],
      "name": "getMyFollowingsList",
      "outputs": [
        {
          "components": [
            {
              "internalType": "address",
              "name": "pubkey",
              "type": "address"
            },
            {
              "internalType": "string",
              "name": "name",
              "type": "string"
            }
          ],
          "internalType": "struct Inscrible.friend[]",
          "name": "",
          "type": "tuple[]"
        }
      ],
      "stateMutability": "view",
      "type": "function"
    },
    {
      "inputs": [
        {
          "internalType": "address",
          "name": "_user",
          "type": "address"
        }
      ],
      "name": "getMyProfilePost",
      "outputs": [
        {
          "components": [
            {
              "internalType": "string",
              "name": "createrName",
              "type": "string"
            },
            {
              "internalType": "address payable",
              "name": "userAddress",
              "type": "address"
            },
            {
              "internalType": "string",
              "name": "imageHash",
              "type": "string"
            },
            {
              "internalType": "string",
              "name": "caption",
              "type": "string"
            },
            {
              "internalType": "string",
              "name": "imageText",
              "type": "string"
            },
            {
              "internalType": "uint256",
              "name": "tipAmount",
              "type": "uint256"
            },
            {
              "internalType": "uint256",
              "name": "id",
              "type": "uint256"
            },
            {
              "internalType": "uint256",
              "name": "likeCount",
              "type": "uint256"
            },
            {
              "internalType": "string[]",
              "name": "likedByUser",
              "type": "string[]"
            }
          ],
          "internalType": "struct Inscrible.Post[]",
          "name": "",
          "type": "tuple[]"
        }
      ],
      "stateMutability": "view",
      "type": "function"
    },
    {
      "inputs": [
        {
          "internalType": "address",
          "name": "key",
          "type": "address"
        }
      ],
      "name": "getSingleUserLatestPost",
      "outputs": [
        {
          "components": [
            {
              "internalType": "string",
              "name": "createrName",
              "type": "string"
            },
            {
              "internalType": "address payable",
              "name": "userAddress",
              "type": "address"
            },
            {
              "internalType": "string",
              "name": "imageHash",
              "type": "string"
            },
            {
              "internalType": "string",
              "name": "caption",
              "type": "string"
            },
            {
              "internalType": "string",
              "name": "imageText",
              "type": "string"
            },
            {
              "internalType": "uint256",
              "name": "tipAmount",
              "type": "uint256"
            },
            {
              "internalType": "uint256",
              "name": "id",
              "type": "uint256"
            },
            {
              "internalType": "uint256",
              "name": "likeCount",
              "type": "uint256"
            },
            {
              "internalType": "string[]",
              "name": "likedByUser",
              "type": "string[]"
            }
          ],
          "internalType": "struct Inscrible.Post",
          "name": "",
          "type": "tuple"
        }
      ],
      "stateMutability": "view",
      "type": "function"
    },
    {
      "inputs": [
        {
          "internalType": "address",
          "name": "key",
          "type": "address"
        }
      ],
      "name": "getSingleUserPost",
      "outputs": [
        {
          "components": [
            {
              "internalType": "string",
              "name": "createrName",
              "type": "string"
            },
            {
              "internalType": "address payable",
              "name": "userAddress",
              "type": "address"
            },
            {
              "internalType": "string",
              "name": "imageHash",
              "type": "string"
            },
            {
              "internalType": "string",
              "name": "caption",
              "type": "string"
            },
            {
              "internalType": "string",
              "name": "imageText",
              "type": "string"
            },
            {
              "internalType": "uint256",
              "name": "tipAmount",
              "type": "uint256"
            },
            {
              "internalType": "uint256",
              "name": "id",
              "type": "uint256"
            },
            {
              "internalType": "uint256",
              "name": "likeCount",
              "type": "uint256"
            },
            {
              "internalType": "string[]",
              "name": "likedByUser",
              "type": "string[]"
            }
          ],
          "internalType": "struct Inscrible.Post[]",
          "name": "",
          "type": "tuple[]"
        }
      ],
      "stateMutability": "view",
      "type": "function"
    },
    {
      "inputs": [
        {
          "internalType": "address",
          "name": "key",
          "type": "address"
        }
      ],
      "name": "getUsername",
      "outputs": [
        {
          "internalType": "string",
          "name": "",
          "type": "string"
        }
      ],
      "stateMutability": "view",
      "type": "function"
    },
    {
      "inputs": [
        {
          "internalType": "address",
          "name": "friend_key",
          "type": "address"
        }
      ],
      "name": "readMessage",
      "outputs": [
        {
          "components": [
            {
              "internalType": "address",
              "name": "sender",
              "type": "address"
            },
            {
              "internalType": "uint256",
              "name": "timestamp",
              "type": "uint256"
            },
            {
              "internalType": "string",
              "name": "msg",
              "type": "string"
            }
          ],
          "internalType": "struct Inscrible.Message[]",
          "name": "",
          "type": "tuple[]"
        }
      ],
      "stateMutability": "view",
      "type": "function"
    },
    {
      "inputs": [
        {
          "internalType": "address",
          "name": "followerAddress",
          "type": "address"
        }
      ],
      "name": "removeFollower",
      "outputs": [],
      "stateMutability": "nonpayable",
      "type": "function"
    },
    {
      "inputs": [
        {
          "internalType": "address",
          "name": "followingAddress",
          "type": "address"
        }
      ],
      "name": "removeFriend",
      "outputs": [],
      "stateMutability": "nonpayable",
      "type": "function"
    },
    {
      "inputs": [
        {
          "internalType": "address",
          "name": "friend_key",
          "type": "address"
        },
        {
          "internalType": "string",
          "name": "_msg",
          "type": "string"
        }
      ],
      "name": "sendMessage",
      "outputs": [],
      "stateMutability": "nonpayable",
      "type": "function"
    },
    {
      "stateMutability": "payable",
      "type": "receive"
    }
  ],
  "bytecode": "0x60806040526000805534801561001457600080fd5b50615250806100246000396000f3fe6080604052600436106101025760003560e01c806373fc70b011610095578063b9a4134f11610064578063b9a4134f14610376578063ce43c032146103b3578063d7a1cfe1146103f0578063de6f24bb14610419578063f11143981461044257610109565b806373fc70b0146102a857806380cee8a5146102e5578063a24d41de1461030e578063aed84e7b1461033957610109565b806330561100116100d157806330561100146101ee578063308837ed1461021957806359737a5414610242578063734ee8e51461026b57610109565b80631e9d48cf1461010e578063255e9c111461014b578063298daf5b146101885780632e2176f6146101b157610109565b3661010957005b600080fd5b34801561011a57600080fd5b50610135600480360381019061013091906140db565b61047f565b6040516101429190614123565b60405180910390f35b34801561015757600080fd5b50610172600480360381019061016d91906140db565b6104f1565b60405161017f9190614311565b60405180910390f35b34801561019457600080fd5b506101af60048036038101906101aa9190614398565b610664565b005b3480156101bd57600080fd5b506101d860048036038101906101d391906140db565b61084f565b6040516101e5919061466b565b60405180910390f35b3480156101fa57600080fd5b50610203610c86565b604051610210919061466b565b60405180910390f35b34801561022557600080fd5b50610240600480360381019061023b91906140db565b61107b565b005b34801561024e57600080fd5b50610269600480360381019061026491906147bd565b611777565b005b34801561027757600080fd5b50610292600480360381019061028d91906140db565b611f97565b60405161029f9190614945565b60405180910390f35b3480156102b457600080fd5b506102cf60048036038101906102ca91906140db565b6123f4565b6040516102dc9190614a66565b60405180910390f35b3480156102f157600080fd5b5061030c600480360381019061030791906140db565b61257d565b005b34801561031a57600080fd5b50610323612c79565b6040516103309190614b87565b60405180910390f35b34801561034557600080fd5b50610360600480360381019061035b91906140db565b612dc0565b60405161036d9190614a66565b60405180910390f35b34801561038257600080fd5b5061039d60048036038101906103989190614ba9565b612f49565b6040516103aa9190614123565b60405180910390f35b3480156103bf57600080fd5b506103da60048036038101906103d591906140db565b613080565b6040516103e79190614c33565b60405180910390f35b3480156103fc57600080fd5b50610417600480360381019061041291906140db565b613154565b005b34801561042557600080fd5b50610440600480360381019061043b9190614c55565b61337b565b005b34801561044e57600080fd5b50610469600480360381019061046491906140db565b613546565b604051610476919061466b565b60405180910390f35b60008060058054905011156104e7576000600160008473ffffffffffffffffffffffffffffffffffffffff1673ffffffffffffffffffffffffffffffffffffffff16815260200190815260200160002060000180546104dd90614ce4565b90501190506104ec565b600090505b919050565b606060006104ff3384613a22565b905060036000828152602001908152602001600020805480602002602001604051908101604052809291908181526020016000905b8282101561065857838290600052602060002090600302016040518060600160405290816000820160009054906101000a900473ffffffffffffffffffffffffffffffffffffffff1673ffffffffffffffffffffffffffffffffffffffff1673ffffffffffffffffffffffffffffffffffffffff168152602001600182015481526020016002820180546105c790614ce4565b80601f01602080910402602001604051908101604052809291908181526020018280546105f390614ce4565b80156106405780601f1061061557610100808354040283529160200191610640565b820191906000526020600020905b81548152906001019060200180831161062357829003601f168201915b50505050508152505081526020019060010190610534565b50505050915050919050565b600015156106713361047f565b1515146106b3576040517f08c379a00000000000000000000000000000000000000000000000000000000081526004016106aa90614d62565b60405180910390fd5b600082829050116106f9576040517f08c379a00000000000000000000000000000000000000000000000000000000081526004016106f090614dce565b60405180910390fd5b8181600160003373ffffffffffffffffffffffffffffffffffffffff1673ffffffffffffffffffffffffffffffffffffffff168152602001908152602001600020600001919061074a929190613d8d565b506005604051806040016040528084848080601f016020809104026020016040519081016040528093929190818152602001838380828437600081840152601f19601f8201169050808301925050505050505081526020013373ffffffffffffffffffffffffffffffffffffffff1681525090806001815401808255809150506001900390600052602060002090600202016000909190919091506000820151816000019080519060200190610801929190613e13565b5060208201518160010160006101000a81548173ffffffffffffffffffffffffffffffffffffffff021916908373ffffffffffffffffffffffffffffffffffffffff16021790555050505050565b6060600160008373ffffffffffffffffffffffffffffffffffffffff1673ffffffffffffffffffffffffffffffffffffffff168152602001908152602001600020600301805480602002602001604051908101604052809291908181526020016000905b82821015610c7b5783829060005260206000209060090201604051806101200160405290816000820180546108e790614ce4565b80601f016020809104026020016040519081016040528092919081815260200182805461091390614ce4565b80156109605780601f1061093557610100808354040283529160200191610960565b820191906000526020600020905b81548152906001019060200180831161094357829003601f168201915b505050505081526020016001820160009054906101000a900473ffffffffffffffffffffffffffffffffffffffff1673ffffffffffffffffffffffffffffffffffffffff1673ffffffffffffffffffffffffffffffffffffffff1681526020016002820180546109cf90614ce4565b80601f01602080910402602001604051908101604052809291908181526020018280546109fb90614ce4565b8015610a485780601f10610a1d57610100808354040283529160200191610a48565b820191906000526020600020905b815481529060010190602001808311610a2b57829003601f168201915b50505050508152602001600382018054610a6190614ce4565b80601f0160208091040260200160405190810160405280929190818152602001828054610a8d90614ce4565b8015610ada5780601f10610aaf57610100808354040283529160200191610ada565b820191906000526020600020905b815481529060010190602001808311610abd57829003601f168201915b50505050508152602001600482018054610af390614ce4565b80601f0160208091040260200160405190810160405280929190818152602001828054610b1f90614ce4565b8015610b6c5780601f10610b4157610100808354040283529160200191610b6c565b820191906000526020600020905b815481529060010190602001808311610b4f57829003601f168201915b5050505050815260200160058201548152602001600682015481526020016007820154815260200160088201805480602002602001604051908101604052809291908181526020016000905b82821015610c64578382906000526020600020018054610bd790614ce4565b80601f0160208091040260200160405190810160405280929190818152602001828054610c0390614ce4565b8015610c505780601f10610c2557610100808354040283529160200191610c50565b820191906000526020600020905b815481529060010190602001808311610c3357829003601f168201915b505050505081526020019060010190610bb8565b5050505081525050815260200190600101906108b3565b505050509050919050565b60606004805480602002602001604051908101604052809291908181526020016000905b82821015611072578382906000526020600020906009020160405180610120016040529081600082018054610cde90614ce4565b80601f0160208091040260200160405190810160405280929190818152602001828054610d0a90614ce4565b8015610d575780601f10610d2c57610100808354040283529160200191610d57565b820191906000526020600020905b815481529060010190602001808311610d3a57829003601f168201915b505050505081526020016001820160009054906101000a900473ffffffffffffffffffffffffffffffffffffffff1673ffffffffffffffffffffffffffffffffffffffff1673ffffffffffffffffffffffffffffffffffffffff168152602001600282018054610dc690614ce4565b80601f0160208091040260200160405190810160405280929190818152602001828054610df290614ce4565b8015610e3f5780601f10610e1457610100808354040283529160200191610e3f565b820191906000526020600020905b815481529060010190602001808311610e2257829003601f168201915b50505050508152602001600382018054610e5890614ce4565b80601f0160208091040260200160405190810160405280929190818152602001828054610e8490614ce4565b8015610ed15780601f10610ea657610100808354040283529160200191610ed1565b820191906000526020600020905b815481529060010190602001808311610eb457829003601f168201915b50505050508152602001600482018054610eea90614ce4565b80601f0160208091040260200160405190810160405280929190818152602001828054610f1690614ce4565b8015610f635780601f10610f3857610100808354040283529160200191610f63565b820191906000526020600020905b815481529060010190602001808311610f4657829003601f168201915b5050505050815260200160058201548152602001600682015481526020016007820154815260200160088201805480602002602001604051908101604052809291908181526020016000905b8282101561105b578382906000526020600020018054610fce90614ce4565b80601f0160208091040260200160405190810160405280929190818152602001828054610ffa90614ce4565b80156110475780601f1061101c57610100808354040283529160200191611047565b820191906000526020600020905b81548152906001019060200180831161102a57829003601f168201915b505050505081526020019060010190610faf565b505050508152505081526020019060010190610caa565b50505050905090565b6000806000905060005b600160003373ffffffffffffffffffffffffffffffffffffffff1673ffffffffffffffffffffffffffffffffffffffff168152602001908152602001600020600101805490508110156111aa578373ffffffffffffffffffffffffffffffffffffffff16600160003373ffffffffffffffffffffffffffffffffffffffff1673ffffffffffffffffffffffffffffffffffffffff168152602001908152602001600020600101828154811061113d5761113c614dee565b5b906000526020600020906002020160000160009054906101000a900473ffffffffffffffffffffffffffffffffffffffff1673ffffffffffffffffffffffffffffffffffffffff16141561119757809250600191506111aa565b80806111a290614e4c565b915050611085565b5080156113f257600160003373ffffffffffffffffffffffffffffffffffffffff1673ffffffffffffffffffffffffffffffffffffffff16815260200190815260200160002060010160018060003373ffffffffffffffffffffffffffffffffffffffff1673ffffffffffffffffffffffffffffffffffffffff168152602001908152602001600020600101805490506112449190614e95565b8154811061125557611254614dee565b5b9060005260206000209060020201600160003373ffffffffffffffffffffffffffffffffffffffff1673ffffffffffffffffffffffffffffffffffffffff16815260200190815260200160002060010183815481106112b7576112b6614dee565b5b90600052602060002090600202016000820160009054906101000a900473ffffffffffffffffffffffffffffffffffffffff168160000160006101000a81548173ffffffffffffffffffffffffffffffffffffffff021916908373ffffffffffffffffffffffffffffffffffffffff160217905550600182018160010190805461134090614ce4565b61134b929190613e99565b50905050600160003373ffffffffffffffffffffffffffffffffffffffff1673ffffffffffffffffffffffffffffffffffffffff1681526020019081526020016000206001018054806113a1576113a0614ec9565b5b6001900381819060005260206000209060020201600080820160006101000a81549073ffffffffffffffffffffffffffffffffffffffff02191690556001820160006113ed9190613f26565b505090555b6000806000905060005b600160008773ffffffffffffffffffffffffffffffffffffffff1673ffffffffffffffffffffffffffffffffffffffff16815260200190815260200160002060020180549050811015611521573373ffffffffffffffffffffffffffffffffffffffff16600160008873ffffffffffffffffffffffffffffffffffffffff1673ffffffffffffffffffffffffffffffffffffffff16815260200190815260200160002060020182815481106114b4576114b3614dee565b5b906000526020600020906002020160000160009054906101000a900473ffffffffffffffffffffffffffffffffffffffff1673ffffffffffffffffffffffffffffffffffffffff16141561150e5780925060019150611521565b808061151990614e4c565b9150506113fc565b508015611770576000600160008773ffffffffffffffffffffffffffffffffffffffff1673ffffffffffffffffffffffffffffffffffffffff168152602001908152602001600020600201805490509050600160008773ffffffffffffffffffffffffffffffffffffffff1673ffffffffffffffffffffffffffffffffffffffff1681526020019081526020016000206002016001826115c19190614e95565b815481106115d2576115d1614dee565b5b9060005260206000209060020201600160008873ffffffffffffffffffffffffffffffffffffffff1673ffffffffffffffffffffffffffffffffffffffff168152602001908152602001600020600201848154811061163457611633614dee565b5b90600052602060002090600202016000820160009054906101000a900473ffffffffffffffffffffffffffffffffffffffff168160000160006101000a81548173ffffffffffffffffffffffffffffffffffffffff021916908373ffffffffffffffffffffffffffffffffffffffff16021790555060018201816001019080546116bd90614ce4565b6116c8929190613e99565b50905050600160008773ffffffffffffffffffffffffffffffffffffffff1673ffffffffffffffffffffffffffffffffffffffff16815260200190815260200160002060020180548061171e5761171d614ec9565b5b6001900381819060005260206000209060020201600080820160006101000a81549073ffffffffffffffffffffffffffffffffffffffff021916905560018201600061176a9190613f26565b50509055505b5050505050565b6117803361047f565b6117bf576040517f08c379a00000000000000000000000000000000000000000000000000000000081526004016117b690614f44565b60405180910390fd5b60008351116117cd57600080fd5b6000808154809291906117df90614e4c565b91905055506000604051806101200160405280600160003373ffffffffffffffffffffffffffffffffffffffff1673ffffffffffffffffffffffffffffffffffffffff168152602001908152602001600020600001805461183f90614ce4565b80601f016020809104026020016040519081016040528092919081815260200182805461186b90614ce4565b80156118b85780601f1061188d576101008083540402835291602001916118b8565b820191906000526020600020905b81548152906001019060200180831161189b57829003601f168201915b505050505081526020013373ffffffffffffffffffffffffffffffffffffffff16815260200185815260200184815260200183815260200160008152602001600054815260200160008152602001600067ffffffffffffffff81111561192157611920614692565b5b60405190808252806020026020018201604052801561195457816020015b606081526020019060019003908161193f5790505b50815250905060005b600160003373ffffffffffffffffffffffffffffffffffffffff1673ffffffffffffffffffffffffffffffffffffffff16815260200190815260200160002060010180549050811015611ba45760026000600160003373ffffffffffffffffffffffffffffffffffffffff1673ffffffffffffffffffffffffffffffffffffffff1681526020019081526020016000206001018381548110611a0257611a01614dee565b5b906000526020600020906002020160000160009054906101000a900473ffffffffffffffffffffffffffffffffffffffff1673ffffffffffffffffffffffffffffffffffffffff1673ffffffffffffffffffffffffffffffffffffffff1681526020019081526020016000208290806001815401808255809150506001900390600052602060002090600902016000909190919091506000820151816000019080519060200190611ab4929190613e13565b5060208201518160010160006101000a81548173ffffffffffffffffffffffffffffffffffffffff021916908373ffffffffffffffffffffffffffffffffffffffff1602179055506040820151816002019080519060200190611b18929190613e13565b506060820151816003019080519060200190611b35929190613e13565b506080820151816004019080519060200190611b52929190613e13565b5060a0820151816005015560c0820151816006015560e08201518160070155610100820151816008019080519060200190611b8e929190613f66565b5050508080611b9c90614e4c565b91505061195d565b50600160003373ffffffffffffffffffffffffffffffffffffffff1673ffffffffffffffffffffffffffffffffffffffff1681526020019081526020016000206003018190806001815401808255809150506001900390600052602060002090600902016000909190919091506000820151816000019080519060200190611c2d929190613e13565b5060208201518160010160006101000a81548173ffffffffffffffffffffffffffffffffffffffff021916908373ffffffffffffffffffffffffffffffffffffffff1602179055506040820151816002019080519060200190611c91929190613e13565b506060820151816003019080519060200190611cae929190613e13565b506080820151816004019080519060200190611ccb929190613e13565b5060a0820151816005015560c0820151816006015560e08201518160070155610100820151816008019080519060200190611d07929190613f66565b505050600260003373ffffffffffffffffffffffffffffffffffffffff1673ffffffffffffffffffffffffffffffffffffffff1681526020019081526020016000208190806001815401808255809150506001900390600052602060002090600902016000909190919091506000820151816000019080519060200190611d8f929190613e13565b5060208201518160010160006101000a81548173ffffffffffffffffffffffffffffffffffffffff021916908373ffffffffffffffffffffffffffffffffffffffff1602179055506040820151816002019080519060200190611df3929190613e13565b506060820151816003019080519060200190611e10929190613e13565b506080820151816004019080519060200190611e2d929190613e13565b5060a0820151816005015560c0820151816006015560e08201518160070155610100820151816008019080519060200190611e69929190613f66565b50505060048190806001815401808255809150506001900390600052602060002090600902016000909190919091506000820151816000019080519060200190611eb4929190613e13565b5060208201518160010160006101000a81548173ffffffffffffffffffffffffffffffffffffffff021916908373ffffffffffffffffffffffffffffffffffffffff1602179055506040820151816002019080519060200190611f18929190613e13565b506060820151816003019080519060200190611f35929190613e13565b506080820151816004019080519060200190611f52929190613e13565b5060a0820151816005015560c0820151816006015560e08201518160070155610100820151816008019080519060200190611f8e929190613f66565b50505050505050565b611f9f613fc6565b600260008373ffffffffffffffffffffffffffffffffffffffff1673ffffffffffffffffffffffffffffffffffffffff1681526020019081526020016000206001600260008573ffffffffffffffffffffffffffffffffffffffff1673ffffffffffffffffffffffffffffffffffffffff1681526020019081526020016000208054905061202d9190614e95565b8154811061203e5761203d614dee565b5b90600052602060002090600902016040518061012001604052908160008201805461206890614ce4565b80601f016020809104026020016040519081016040528092919081815260200182805461209490614ce4565b80156120e15780601f106120b6576101008083540402835291602001916120e1565b820191906000526020600020905b8154815290600101906020018083116120c457829003601f168201915b505050505081526020016001820160009054906101000a900473ffffffffffffffffffffffffffffffffffffffff1673ffffffffffffffffffffffffffffffffffffffff1673ffffffffffffffffffffffffffffffffffffffff16815260200160028201805461215090614ce4565b80601f016020809104026020016040519081016040528092919081815260200182805461217c90614ce4565b80156121c95780601f1061219e576101008083540402835291602001916121c9565b820191906000526020600020905b8154815290600101906020018083116121ac57829003601f168201915b505050505081526020016003820180546121e290614ce4565b80601f016020809104026020016040519081016040528092919081815260200182805461220e90614ce4565b801561225b5780601f106122305761010080835404028352916020019161225b565b820191906000526020600020905b81548152906001019060200180831161223e57829003601f168201915b5050505050815260200160048201805461227490614ce4565b80601f01602080910402602001604051908101604052809291908181526020018280546122a090614ce4565b80156122ed5780601f106122c2576101008083540402835291602001916122ed565b820191906000526020600020905b8154815290600101906020018083116122d057829003601f168201915b5050505050815260200160058201548152602001600682015481526020016007820154815260200160088201805480602002602001604051908101604052809291908181526020016000905b828210156123e557838290600052602060002001805461235890614ce4565b80601f016020809104026020016040519081016040528092919081815260200182805461238490614ce4565b80156123d15780601f106123a6576101008083540402835291602001916123d1565b820191906000526020600020905b8154815290600101906020018083116123b457829003601f168201915b505050505081526020019060010190612339565b50505050815250509050919050565b6060600160008373ffffffffffffffffffffffffffffffffffffffff1673ffffffffffffffffffffffffffffffffffffffff168152602001908152602001600020600101805480602002602001604051908101604052809291908181526020016000905b8282101561257257838290600052602060002090600202016040518060400160405290816000820160009054906101000a900473ffffffffffffffffffffffffffffffffffffffff1673ffffffffffffffffffffffffffffffffffffffff1673ffffffffffffffffffffffffffffffffffffffff1681526020016001820180546124e190614ce4565b80601f016020809104026020016040519081016040528092919081815260200182805461250d90614ce4565b801561255a5780601f1061252f5761010080835404028352916020019161255a565b820191906000526020600020905b81548152906001019060200180831161253d57829003601f168201915b50505050508152505081526020019060010190612458565b505050509050919050565b6000806000905060005b600160008573ffffffffffffffffffffffffffffffffffffffff1673ffffffffffffffffffffffffffffffffffffffff168152602001908152602001600020600101805490508110156126ac573373ffffffffffffffffffffffffffffffffffffffff16600160008673ffffffffffffffffffffffffffffffffffffffff1673ffffffffffffffffffffffffffffffffffffffff168152602001908152602001600020600101828154811061263f5761263e614dee565b5b906000526020600020906002020160000160009054906101000a900473ffffffffffffffffffffffffffffffffffffffff1673ffffffffffffffffffffffffffffffffffffffff16141561269957809250600191506126ac565b80806126a490614e4c565b915050612587565b5080156128f457600160008473ffffffffffffffffffffffffffffffffffffffff1673ffffffffffffffffffffffffffffffffffffffff16815260200190815260200160002060010160018060008673ffffffffffffffffffffffffffffffffffffffff1673ffffffffffffffffffffffffffffffffffffffff168152602001908152602001600020600101805490506127469190614e95565b8154811061275757612756614dee565b5b9060005260206000209060020201600160008573ffffffffffffffffffffffffffffffffffffffff1673ffffffffffffffffffffffffffffffffffffffff16815260200190815260200160002060010183815481106127b9576127b8614dee565b5b90600052602060002090600202016000820160009054906101000a900473ffffffffffffffffffffffffffffffffffffffff168160000160006101000a81548173ffffffffffffffffffffffffffffffffffffffff021916908373ffffffffffffffffffffffffffffffffffffffff160217905550600182018160010190805461284290614ce4565b61284d929190613e99565b50905050600160008473ffffffffffffffffffffffffffffffffffffffff1673ffffffffffffffffffffffffffffffffffffffff1681526020019081526020016000206001018054806128a3576128a2614ec9565b5b6001900381819060005260206000209060020201600080820160006101000a81549073ffffffffffffffffffffffffffffffffffffffff02191690556001820160006128ef9190613f26565b505090555b6000806000905060005b600160003373ffffffffffffffffffffffffffffffffffffffff1673ffffffffffffffffffffffffffffffffffffffff16815260200190815260200160002060020180549050811015612a23578573ffffffffffffffffffffffffffffffffffffffff16600160003373ffffffffffffffffffffffffffffffffffffffff1673ffffffffffffffffffffffffffffffffffffffff16815260200190815260200160002060020182815481106129b6576129b5614dee565b5b906000526020600020906002020160000160009054906101000a900473ffffffffffffffffffffffffffffffffffffffff1673ffffffffffffffffffffffffffffffffffffffff161415612a105780925060019150612a23565b8080612a1b90614e4c565b9150506128fe565b508015612c72576000600160003373ffffffffffffffffffffffffffffffffffffffff1673ffffffffffffffffffffffffffffffffffffffff168152602001908152602001600020600201805490509050600160003373ffffffffffffffffffffffffffffffffffffffff1673ffffffffffffffffffffffffffffffffffffffff168152602001908152602001600020600201600182612ac39190614e95565b81548110612ad457612ad3614dee565b5b9060005260206000209060020201600160003373ffffffffffffffffffffffffffffffffffffffff1673ffffffffffffffffffffffffffffffffffffffff1681526020019081526020016000206002018481548110612b3657612b35614dee565b5b90600052602060002090600202016000820160009054906101000a900473ffffffffffffffffffffffffffffffffffffffff168160000160006101000a81548173ffffffffffffffffffffffffffffffffffffffff021916908373ffffffffffffffffffffffffffffffffffffffff1602179055506001820181600101908054612bbf90614ce4565b612bca929190613e99565b50905050600160003373ffffffffffffffffffffffffffffffffffffffff1673ffffffffffffffffffffffffffffffffffffffff168152602001908152602001600020600201805480612c2057612c1f614ec9565b5b6001900381819060005260206000209060020201600080820160006101000a81549073ffffffffffffffffffffffffffffffffffffffff0219169055600182016000612c6c9190613f26565b50509055505b5050505050565b60606005805480602002602001604051908101604052809291908181526020016000905b82821015612db75783829060005260206000209060020201604051806040016040529081600082018054612cd090614ce4565b80601f0160208091040260200160405190810160405280929190818152602001828054612cfc90614ce4565b8015612d495780601f10612d1e57610100808354040283529160200191612d49565b820191906000526020600020905b815481529060010190602001808311612d2c57829003601f168201915b505050505081526020016001820160009054906101000a900473ffffffffffffffffffffffffffffffffffffffff1673ffffffffffffffffffffffffffffffffffffffff1673ffffffffffffffffffffffffffffffffffffffff168152505081526020019060010190612c9d565b50505050905090565b6060600160008373ffffffffffffffffffffffffffffffffffffffff1673ffffffffffffffffffffffffffffffffffffffff168152602001908152602001600020600201805480602002602001604051908101604052809291908181526020016000905b82821015612f3e57838290600052602060002090600202016040518060400160405290816000820160009054906101000a900473ffffffffffffffffffffffffffffffffffffffff1673ffffffffffffffffffffffffffffffffffffffff1673ffffffffffffffffffffffffffffffffffffffff168152602001600182018054612ead90614ce4565b80601f0160208091040260200160405190810160405280929190818152602001828054612ed990614ce4565b8015612f265780601f10612efb57610100808354040283529160200191612f26565b820191906000526020600020905b815481529060010190602001808311612f0957829003601f168201915b50505050508152505081526020019060010190612e24565b505050509050919050565b600080600090505b600160008473ffffffffffffffffffffffffffffffffffffffff1673ffffffffffffffffffffffffffffffffffffffff16815260200190815260200160002060010180549050811015613074578373ffffffffffffffffffffffffffffffffffffffff16600160008573ffffffffffffffffffffffffffffffffffffffff1673ffffffffffffffffffffffffffffffffffffffff168152602001908152602001600020600101828154811061300957613008614dee565b5b906000526020600020906002020160000160009054906101000a900473ffffffffffffffffffffffffffffffffffffffff1673ffffffffffffffffffffffffffffffffffffffff16141561306157600191505061307a565b808061306c90614e4c565b915050612f51565b50600090505b92915050565b6060600160008373ffffffffffffffffffffffffffffffffffffffff1673ffffffffffffffffffffffffffffffffffffffff16815260200190815260200160002060000180546130cf90614ce4565b80601f01602080910402602001604051908101604052809291908181526020018280546130fb90614ce4565b80156131485780601f1061311d57610100808354040283529160200191613148565b820191906000526020600020905b81548152906001019060200180831161312b57829003601f168201915b50505050509050919050565b61315d3361047f565b61319c576040517f08c379a000000000000000000000000000000000000000000000000000000000815260040161319390614fb0565b60405180910390fd5b6131a58161047f565b6131e4576040517f08c379a00000000000000000000000000000000000000000000000000000000081526004016131db9061501c565b60405180910390fd5b8073ffffffffffffffffffffffffffffffffffffffff163373ffffffffffffffffffffffffffffffffffffffff161415613253576040517f08c379a000000000000000000000000000000000000000000000000000000000815260040161324a906150ae565b60405180910390fd5b600015156132613383612f49565b1515146132a3576040517f08c379a000000000000000000000000000000000000000000000000000000000815260040161329a9061511a565b60405180910390fd5b6133788133600160003373ffffffffffffffffffffffffffffffffffffffff1673ffffffffffffffffffffffffffffffffffffffff16815260200190815260200160002060000180546132f590614ce4565b80601f016020809104026020016040519081016040528092919081815260200182805461332190614ce4565b801561336e5780601f106133435761010080835404028352916020019161336e565b820191906000526020600020905b81548152906001019060200180831161335157829003601f168201915b5050505050613aba565b50565b6133843361047f565b6133c3576040517f08c379a00000000000000000000000000000000000000000000000000000000081526004016133ba90614fb0565b60405180910390fd5b6133cc8361047f565b61340b576040517f08c379a000000000000000000000000000000000000000000000000000000000815260040161340290615186565b60405180910390fd5b60006134173385613a22565b9050600060405180606001604052803373ffffffffffffffffffffffffffffffffffffffff16815260200142815260200185858080601f016020809104026020016040519081016040528093929190818152602001838380828437600081840152601f19601f8201169050808301925050505050505081525090506003600083815260200190815260200160002081908060018154018082558091505060019003906000526020600020906003020160009091909190915060008201518160000160006101000a81548173ffffffffffffffffffffffffffffffffffffffff021916908373ffffffffffffffffffffffffffffffffffffffff16021790555060208201518160010155604082015181600201908051906020019061353c929190613e13565b5050505050505050565b60606000600260008473ffffffffffffffffffffffffffffffffffffffff1673ffffffffffffffffffffffffffffffffffffffff1681526020019081526020016000208054905011156139c557600260008373ffffffffffffffffffffffffffffffffffffffff1673ffffffffffffffffffffffffffffffffffffffff168152602001908152602001600020805480602002602001604051908101604052809291908181526020016000905b828210156139ba57838290600052602060002090600902016040518061012001604052908160008201805461362690614ce4565b80601f016020809104026020016040519081016040528092919081815260200182805461365290614ce4565b801561369f5780601f106136745761010080835404028352916020019161369f565b820191906000526020600020905b81548152906001019060200180831161368257829003601f168201915b505050505081526020016001820160009054906101000a900473ffffffffffffffffffffffffffffffffffffffff1673ffffffffffffffffffffffffffffffffffffffff1673ffffffffffffffffffffffffffffffffffffffff16815260200160028201805461370e90614ce4565b80601f016020809104026020016040519081016040528092919081815260200182805461373a90614ce4565b80156137875780601f1061375c57610100808354040283529160200191613787565b820191906000526020600020905b81548152906001019060200180831161376a57829003601f168201915b505050505081526020016003820180546137a090614ce4565b80601f01602080910402602001604051908101604052809291908181526020018280546137cc90614ce4565b80156138195780601f106137ee57610100808354040283529160200191613819565b820191906000526020600020905b8154815290600101906020018083116137fc57829003601f168201915b5050505050815260200160048201805461383290614ce4565b80601f016020809104026020016040519081016040528092919081815260200182805461385e90614ce4565b80156138ab5780601f10613880576101008083540402835291602001916138ab565b820191906000526020600020905b81548152906001019060200180831161388e57829003601f168201915b5050505050815260200160058201548152602001600682015481526020016007820154815260200160088201805480602002602001604051908101604052809291908181526020016000905b828210156139a357838290600052602060002001805461391690614ce4565b80601f016020809104026020016040519081016040528092919081815260200182805461394290614ce4565b801561398f5780601f106139645761010080835404028352916020019161398f565b820191906000526020600020905b81548152906001019060200180831161397257829003601f168201915b5050505050815260200190600101906138f7565b5050505081525050815260200190600101906135f2565b505050509050613a1d565b600067ffffffffffffffff8111156139e0576139df614692565b5b604051908082528060200260200182016040528015613a1957816020015b613a06613fc6565b8152602001906001900390816139fe5790505b5090505b919050565b60008173ffffffffffffffffffffffffffffffffffffffff168373ffffffffffffffffffffffffffffffffffffffff161015613a88578282604051602001613a6b9291906151ee565b604051602081830303815290604052805190602001209050613ab4565b8183604051602001613a9b9291906151ee565b6040516020818303038152906040528051906020012090505b92915050565b600060405180604001604052808473ffffffffffffffffffffffffffffffffffffffff168152602001838152509050600160008573ffffffffffffffffffffffffffffffffffffffff1673ffffffffffffffffffffffffffffffffffffffff16815260200190815260200160002060010181908060018154018082558091505060019003906000526020600020906002020160009091909190915060008201518160000160006101000a81548173ffffffffffffffffffffffffffffffffffffffff021916908373ffffffffffffffffffffffffffffffffffffffff1602179055506020820151816001019080519060200190613bb8929190613e13565b505050600060405180604001604052808673ffffffffffffffffffffffffffffffffffffffff168152602001600160008873ffffffffffffffffffffffffffffffffffffffff1673ffffffffffffffffffffffffffffffffffffffff1681526020019081526020016000206000018054613c3190614ce4565b80601f0160208091040260200160405190810160405280929190818152602001828054613c5d90614ce4565b8015613caa5780601f10613c7f57610100808354040283529160200191613caa565b820191906000526020600020905b815481529060010190602001808311613c8d57829003601f168201915b50505050508152509050600160008573ffffffffffffffffffffffffffffffffffffffff1673ffffffffffffffffffffffffffffffffffffffff16815260200190815260200160002060020181908060018154018082558091505060019003906000526020600020906002020160009091909190915060008201518160000160006101000a81548173ffffffffffffffffffffffffffffffffffffffff021916908373ffffffffffffffffffffffffffffffffffffffff1602179055506020820151816001019080519060200190613d83929190613e13565b5050505050505050565b828054613d9990614ce4565b90600052602060002090601f016020900481019282613dbb5760008555613e02565b82601f10613dd457803560ff1916838001178555613e02565b82800160010185558215613e02579182015b82811115613e01578235825591602001919060010190613de6565b5b509050613e0f9190614028565b5090565b828054613e1f90614ce4565b90600052602060002090601f016020900481019282613e415760008555613e88565b82601f10613e5a57805160ff1916838001178555613e88565b82800160010185558215613e88579182015b82811115613e87578251825591602001919060010190613e6c565b5b509050613e959190614028565b5090565b828054613ea590614ce4565b90600052602060002090601f016020900481019282613ec75760008555613f15565b82601f10613ed85780548555613f15565b82800160010185558215613f1557600052602060002091601f016020900482015b82811115613f14578254825591600101919060010190613ef9565b5b509050613f229190614028565b5090565b508054613f3290614ce4565b6000825580601f10613f445750613f63565b601f016020900490600052602060002090810190613f629190614028565b5b50565b828054828255906000526020600020908101928215613fb5579160200282015b82811115613fb4578251829080519060200190613fa4929190613e13565b5091602001919060010190613f86565b5b509050613fc29190614045565b5090565b60405180610120016040528060608152602001600073ffffffffffffffffffffffffffffffffffffffff168152602001606081526020016060815260200160608152602001600081526020016000815260200160008152602001606081525090565b5b80821115614041576000816000905550600101614029565b5090565b5b80821115614065576000818161405c9190613f26565b50600101614046565b5090565b6000604051905090565b600080fd5b600080fd5b600073ffffffffffffffffffffffffffffffffffffffff82169050919050565b60006140a88261407d565b9050919050565b6140b88161409d565b81146140c357600080fd5b50565b6000813590506140d5816140af565b92915050565b6000602082840312156140f1576140f0614073565b5b60006140ff848285016140c6565b91505092915050565b60008115159050919050565b61411d81614108565b82525050565b60006020820190506141386000830184614114565b92915050565b600081519050919050565b600082825260208201905092915050565b6000819050602082019050919050565b6141738161409d565b82525050565b6000819050919050565b61418c81614179565b82525050565b600081519050919050565b600082825260208201905092915050565b60005b838110156141cc5780820151818401526020810190506141b1565b838111156141db576000848401525b50505050565b6000601f19601f8301169050919050565b60006141fd82614192565b614207818561419d565b93506142178185602086016141ae565b614220816141e1565b840191505092915050565b6000606083016000830151614243600086018261416a565b5060208301516142566020860182614183565b506040830151848203604086015261426e82826141f2565b9150508091505092915050565b6000614287838361422b565b905092915050565b6000602082019050919050565b60006142a78261413e565b6142b18185614149565b9350836020820285016142c38561415a565b8060005b858110156142ff57848403895281516142e0858261427b565b94506142eb8361428f565b925060208a019950506001810190506142c7565b50829750879550505050505092915050565b6000602082019050818103600083015261432b818461429c565b905092915050565b600080fd5b600080fd5b600080fd5b60008083601f84011261435857614357614333565b5b8235905067ffffffffffffffff81111561437557614374614338565b5b6020830191508360018202830111156143915761439061433d565b5b9250929050565b600080602083850312156143af576143ae614073565b5b600083013567ffffffffffffffff8111156143cd576143cc614078565b5b6143d985828601614342565b92509250509250929050565b600081519050919050565b600082825260208201905092915050565b6000819050602082019050919050565b600061441c8261407d565b9050919050565b61442c81614411565b82525050565b600081519050919050565b600082825260208201905092915050565b6000819050602082019050919050565b600061446a83836141f2565b905092915050565b6000602082019050919050565b600061448a82614432565b614494818561443d565b9350836020820285016144a68561444e565b8060005b858110156144e257848403895281516144c3858261445e565b94506144ce83614472565b925060208a019950506001810190506144aa565b50829750879550505050505092915050565b600061012083016000830151848203600086015261451282826141f2565b91505060208301516145276020860182614423565b506040830151848203604086015261453f82826141f2565b9150506060830151848203606086015261455982826141f2565b9150506080830151848203608086015261457382826141f2565b91505060a083015161458860a0860182614183565b5060c083015161459b60c0860182614183565b5060e08301516145ae60e0860182614183565b506101008301518482036101008601526145c8828261447f565b9150508091505092915050565b60006145e183836144f4565b905092915050565b6000602082019050919050565b6000614601826143e5565b61460b81856143f0565b93508360208202850161461d85614401565b8060005b85811015614659578484038952815161463a85826145d5565b9450614645836145e9565b925060208a01995050600181019050614621565b50829750879550505050505092915050565b6000602082019050818103600083015261468581846145f6565b905092915050565b600080fd5b7f4e487b7100000000000000000000000000000000000000000000000000000000600052604160045260246000fd5b6146ca826141e1565b810181811067ffffffffffffffff821117156146e9576146e8614692565b5b80604052505050565b60006146fc614069565b905061470882826146c1565b919050565b600067ffffffffffffffff82111561472857614727614692565b5b614731826141e1565b9050602081019050919050565b82818337600083830152505050565b600061476061475b8461470d565b6146f2565b90508281526020810184848401111561477c5761477b61468d565b5b61478784828561473e565b509392505050565b600082601f8301126147a4576147a3614333565b5b81356147b484826020860161474d565b91505092915050565b6000806000606084860312156147d6576147d5614073565b5b600084013567ffffffffffffffff8111156147f4576147f3614078565b5b6148008682870161478f565b935050602084013567ffffffffffffffff81111561482157614820614078565b5b61482d8682870161478f565b925050604084013567ffffffffffffffff81111561484e5761484d614078565b5b61485a8682870161478f565b9150509250925092565b600061012083016000830151848203600086015261488282826141f2565b91505060208301516148976020860182614423565b50604083015184820360408601526148af82826141f2565b915050606083015184820360608601526148c982826141f2565b915050608083015184820360808601526148e382826141f2565b91505060a08301516148f860a0860182614183565b5060c083015161490b60c0860182614183565b5060e083015161491e60e0860182614183565b50610100830151848203610100860152614938828261447f565b9150508091505092915050565b6000602082019050818103600083015261495f8184614864565b905092915050565b600081519050919050565b600082825260208201905092915050565b6000819050602082019050919050565b60006040830160008301516149ab600086018261416a565b50602083015184820360208601526149c382826141f2565b9150508091505092915050565b60006149dc8383614993565b905092915050565b6000602082019050919050565b60006149fc82614967565b614a068185614972565b935083602082028501614a1885614983565b8060005b85811015614a545784840389528151614a3585826149d0565b9450614a40836149e4565b925060208a01995050600181019050614a1c565b50829750879550505050505092915050565b60006020820190508181036000830152614a8081846149f1565b905092915050565b600081519050919050565b600082825260208201905092915050565b6000819050602082019050919050565b60006040830160008301518482036000860152614ad182826141f2565b9150506020830151614ae6602086018261416a565b508091505092915050565b6000614afd8383614ab4565b905092915050565b6000602082019050919050565b6000614b1d82614a88565b614b278185614a93565b935083602082028501614b3985614aa4565b8060005b85811015614b755784840389528151614b568582614af1565b9450614b6183614b05565b925060208a01995050600181019050614b3d565b50829750879550505050505092915050565b60006020820190508181036000830152614ba18184614b12565b905092915050565b60008060408385031215614bc057614bbf614073565b5b6000614bce858286016140c6565b9250506020614bdf858286016140c6565b9150509250929050565b600082825260208201905092915050565b6000614c0582614192565b614c0f8185614be9565b9350614c1f8185602086016141ae565b614c28816141e1565b840191505092915050565b60006020820190508181036000830152614c4d8184614bfa565b905092915050565b600080600060408486031215614c6e57614c6d614073565b5b6000614c7c868287016140c6565b935050602084013567ffffffffffffffff811115614c9d57614c9c614078565b5b614ca986828701614342565b92509250509250925092565b7f4e487b7100000000000000000000000000000000000000000000000000000000600052602260045260246000fd5b60006002820490506001821680614cfc57607f821691505b60208210811415614d1057614d0f614cb5565b5b50919050565b7f5573657220616c726564792068617320616e206163636f756e74210000000000600082015250565b6000614d4c601b83614be9565b9150614d5782614d16565b602082019050919050565b60006020820190508181036000830152614d7b81614d3f565b9050919050565b7f55736572206e616d652073686f756c64206e6f7420626520656d707479210000600082015250565b6000614db8601e83614be9565b9150614dc382614d82565b602082019050919050565b60006020820190508181036000830152614de781614dab565b9050919050565b7f4e487b7100000000000000000000000000000000000000000000000000000000600052603260045260246000fd5b7f4e487b7100000000000000000000000000000000000000000000000000000000600052601160045260246000fd5b6000614e5782614179565b91507fffffffffffffffffffffffffffffffffffffffffffffffffffffffffffffffff821415614e8a57614e89614e1d565b5b600182019050919050565b6000614ea082614179565b9150614eab83614179565b925082821015614ebe57614ebd614e1d565b5b828203905092915050565b7f4e487b7100000000000000000000000000000000000000000000000000000000600052603160045260246000fd5b7f55736572206e6f74207265676973746572656421000000000000000000000000600082015250565b6000614f2e601483614be9565b9150614f3982614ef8565b602082019050919050565b60006020820190508181036000830152614f5d81614f21565b9050919050565b7f43726561746520616e206163636f756e74206669727374000000000000000000600082015250565b6000614f9a601783614be9565b9150614fa582614f64565b602082019050919050565b60006020820190508181036000830152614fc981614f8d565b9050919050565b7f55736572206973206e6f74207265676973746572656421000000000000000000600082015250565b6000615006601783614be9565b915061501182614fd0565b602082019050919050565b6000602082019050818103600083015261503581614ff9565b9050919050565b7f55736572732063616e6e6f7420616464207468656d6573656c7665732061732060008201527f667269656e647300000000000000000000000000000000000000000000000000602082015250565b6000615098602783614be9565b91506150a38261503c565b604082019050919050565b600060208201905081810360008301526150c78161508b565b9050919050565b7f54686573652075736572732061726520616c726561647920667269656e647300600082015250565b6000615104601f83614be9565b915061510f826150ce565b602082019050919050565b60006020820190508181036000830152615133816150f7565b9050919050565b7f55736572206973206e6f74207265676973746572656400000000000000000000600082015250565b6000615170601683614be9565b915061517b8261513a565b602082019050919050565b6000602082019050818103600083015261519f81615163565b9050919050565b60008160601b9050919050565b60006151be826151a6565b9050919050565b60006151d0826151b3565b9050919050565b6151e86151e38261409d565b6151c5565b82525050565b60006151fa82856151d7565b60148201915061520a82846151d7565b601482019150819050939250505056fea26469706673582212208099b4d75f8c7a0ac38ff46e6a2ec13e7e557830e759e93b097ac1209737b70564736f6c63430008090033",
  "linkReferences": {},
  "deployedLinkReferences": {}
}