{
  "_format": "hh-sol-artifact-1",
  "contractName": "Inscrible",
  "sourceName": "contracts/Inscrible.sol",
  "abi": [
    {
      "inputs": [
        {
          "internalType": "address",
          "name": "friend_key",
          "type": "address"
        }
      ],
      "name": "addFriend",
      "outputs": [],
      "stateMutability": "nonpayable",
      "type": "function"
    },
    {
      "inputs": [
        {
          "internalType": "string",
          "name": "_imgHash",
          "type": "string"
        },
        {
          "internalType": "string",
          "name": "desc",
          "type": "string"
        },
        {
          "internalType": "string",
          "name": "imgText",
          "type": "string"
        }
      ],
      "name": "addPostImage",
      "outputs": [],
      "stateMutability": "nonpayable",
      "type": "function"
    },
    {
      "inputs": [
        {
          "internalType": "address",
          "name": "me",
          "type": "address"
        },
        {
          "internalType": "address",
          "name": "following_key",
          "type": "address"
        }
      ],
      "name": "checkAlreadyFriends",
      "outputs": [
        {
          "internalType": "bool",
          "name": "",
          "type": "bool"
        }
      ],
      "stateMutability": "view",
      "type": "function"
    },
    {
      "inputs": [
        {
          "internalType": "address",
          "name": "key",
          "type": "address"
        }
      ],
      "name": "checkUser",
      "outputs": [
        {
          "internalType": "bool",
          "name": "",
          "type": "bool"
        }
      ],
      "stateMutability": "view",
      "type": "function"
    },
    {
      "inputs": [
        {
          "internalType": "string",
          "name": "_username",
          "type": "string"
        },
        {
          "internalType": "string",
          "name": "img",
          "type": "string"
        }
      ],
      "name": "createAccount",
      "outputs": [],
      "stateMutability": "nonpayable",
      "type": "function"
    },
    {
      "inputs": [],
      "name": "getAllAppUser",
      "outputs": [
        {
          "components": [
            {
              "internalType": "string",
              "name": "username",
              "type": "string"
            },
            {
              "internalType": "address",
              "name": "accountAddress",
              "type": "address"
            },
            {
              "internalType": "string",
              "name": "profilePic",
              "type": "string"
            }
          ],
          "internalType": "struct Inscrible.AllUserStruck[]",
          "name": "",
          "type": "tuple[]"
        }
      ],
      "stateMutability": "view",
      "type": "function"
    },
    {
      "inputs": [],
      "name": "getAllPosts",
      "outputs": [
        {
          "components": [
            {
              "internalType": "string",
              "name": "createrName",
              "type": "string"
            },
            {
              "internalType": "address payable",
              "name": "userAddress",
              "type": "address"
            },
            {
              "internalType": "string",
              "name": "imageHash",
              "type": "string"
            },
            {
              "internalType": "string",
              "name": "caption",
              "type": "string"
            },
            {
              "internalType": "string",
              "name": "imageText",
              "type": "string"
            },
            {
              "internalType": "uint256",
              "name": "tipAmount",
              "type": "uint256"
            },
            {
              "internalType": "uint256",
              "name": "id",
              "type": "uint256"
            },
            {
              "internalType": "uint256",
              "name": "likeCount",
              "type": "uint256"
            },
            {
              "internalType": "string[]",
              "name": "likedByUser",
              "type": "string[]"
            }
          ],
          "internalType": "struct Inscrible.Post[]",
          "name": "",
          "type": "tuple[]"
        }
      ],
      "stateMutability": "view",
      "type": "function"
    },
    {
      "inputs": [
        {
          "internalType": "address",
          "name": "_user",
          "type": "address"
        }
      ],
      "name": "getMyFollowersList",
      "outputs": [
        {
          "components": [
            {
              "internalType": "address",
              "name": "pubkey",
              "type": "address"
            },
            {
              "internalType": "string",
              "name": "name",
              "type": "string"
            }
          ],
          "internalType": "struct Inscrible.friend[]",
          "name": "",
          "type": "tuple[]"
        }
      ],
      "stateMutability": "view",
      "type": "function"
    },
    {
      "inputs": [
        {
          "internalType": "address",
          "name": "_user",
          "type": "address"
        }
      ],
      "name": "getMyFollowingsList",
      "outputs": [
        {
          "components": [
            {
              "internalType": "address",
              "name": "pubkey",
              "type": "address"
            },
            {
              "internalType": "string",
              "name": "name",
              "type": "string"
            }
          ],
          "internalType": "struct Inscrible.friend[]",
          "name": "",
          "type": "tuple[]"
        }
      ],
      "stateMutability": "view",
      "type": "function"
    },
    {
      "inputs": [
        {
          "internalType": "address",
          "name": "_user",
          "type": "address"
        }
      ],
      "name": "getMyProfilePost",
      "outputs": [
        {
          "components": [
            {
              "internalType": "string",
              "name": "createrName",
              "type": "string"
            },
            {
              "internalType": "address payable",
              "name": "userAddress",
              "type": "address"
            },
            {
              "internalType": "string",
              "name": "imageHash",
              "type": "string"
            },
            {
              "internalType": "string",
              "name": "caption",
              "type": "string"
            },
            {
              "internalType": "string",
              "name": "imageText",
              "type": "string"
            },
            {
              "internalType": "uint256",
              "name": "tipAmount",
              "type": "uint256"
            },
            {
              "internalType": "uint256",
              "name": "id",
              "type": "uint256"
            },
            {
              "internalType": "uint256",
              "name": "likeCount",
              "type": "uint256"
            },
            {
              "internalType": "string[]",
              "name": "likedByUser",
              "type": "string[]"
            }
          ],
          "internalType": "struct Inscrible.Post[]",
          "name": "",
          "type": "tuple[]"
        }
      ],
      "stateMutability": "view",
      "type": "function"
    },
    {
      "inputs": [
        {
          "internalType": "address",
          "name": "key",
          "type": "address"
        }
      ],
      "name": "getProfilePic",
      "outputs": [
        {
          "internalType": "string",
          "name": "",
          "type": "string"
        }
      ],
      "stateMutability": "view",
      "type": "function"
    },
    {
      "inputs": [
        {
          "internalType": "address",
          "name": "key",
          "type": "address"
        }
      ],
      "name": "getSingleUserLatestPost",
      "outputs": [
        {
          "components": [
            {
              "internalType": "string",
              "name": "createrName",
              "type": "string"
            },
            {
              "internalType": "address payable",
              "name": "userAddress",
              "type": "address"
            },
            {
              "internalType": "string",
              "name": "imageHash",
              "type": "string"
            },
            {
              "internalType": "string",
              "name": "caption",
              "type": "string"
            },
            {
              "internalType": "string",
              "name": "imageText",
              "type": "string"
            },
            {
              "internalType": "uint256",
              "name": "tipAmount",
              "type": "uint256"
            },
            {
              "internalType": "uint256",
              "name": "id",
              "type": "uint256"
            },
            {
              "internalType": "uint256",
              "name": "likeCount",
              "type": "uint256"
            },
            {
              "internalType": "string[]",
              "name": "likedByUser",
              "type": "string[]"
            }
          ],
          "internalType": "struct Inscrible.Post",
          "name": "",
          "type": "tuple"
        }
      ],
      "stateMutability": "view",
      "type": "function"
    },
    {
      "inputs": [
        {
          "internalType": "address",
          "name": "key",
          "type": "address"
        }
      ],
      "name": "getSingleUserPost",
      "outputs": [
        {
          "components": [
            {
              "internalType": "string",
              "name": "createrName",
              "type": "string"
            },
            {
              "internalType": "address payable",
              "name": "userAddress",
              "type": "address"
            },
            {
              "internalType": "string",
              "name": "imageHash",
              "type": "string"
            },
            {
              "internalType": "string",
              "name": "caption",
              "type": "string"
            },
            {
              "internalType": "string",
              "name": "imageText",
              "type": "string"
            },
            {
              "internalType": "uint256",
              "name": "tipAmount",
              "type": "uint256"
            },
            {
              "internalType": "uint256",
              "name": "id",
              "type": "uint256"
            },
            {
              "internalType": "uint256",
              "name": "likeCount",
              "type": "uint256"
            },
            {
              "internalType": "string[]",
              "name": "likedByUser",
              "type": "string[]"
            }
          ],
          "internalType": "struct Inscrible.Post[]",
          "name": "",
          "type": "tuple[]"
        }
      ],
      "stateMutability": "view",
      "type": "function"
    },
    {
      "inputs": [
        {
          "internalType": "address",
          "name": "key",
          "type": "address"
        }
      ],
      "name": "getUsername",
      "outputs": [
        {
          "internalType": "string",
          "name": "",
          "type": "string"
        }
      ],
      "stateMutability": "view",
      "type": "function"
    },
    {
      "inputs": [
        {
          "internalType": "address",
          "name": "friend_key",
          "type": "address"
        }
      ],
      "name": "readMessage",
      "outputs": [
        {
          "components": [
            {
              "internalType": "address",
              "name": "sender",
              "type": "address"
            },
            {
              "internalType": "uint256",
              "name": "timestamp",
              "type": "uint256"
            },
            {
              "internalType": "string",
              "name": "msg",
              "type": "string"
            }
          ],
          "internalType": "struct Inscrible.Message[]",
          "name": "",
          "type": "tuple[]"
        }
      ],
      "stateMutability": "view",
      "type": "function"
    },
    {
      "inputs": [
        {
          "internalType": "address",
          "name": "followerAddress",
          "type": "address"
        }
      ],
      "name": "removeFollower",
      "outputs": [],
      "stateMutability": "nonpayable",
      "type": "function"
    },
    {
      "inputs": [
        {
          "internalType": "address",
          "name": "followingAddress",
          "type": "address"
        }
      ],
      "name": "removeFriend",
      "outputs": [],
      "stateMutability": "nonpayable",
      "type": "function"
    },
    {
      "inputs": [
        {
          "internalType": "address",
          "name": "friend_key",
          "type": "address"
        },
        {
          "internalType": "string",
          "name": "_msg",
          "type": "string"
        }
      ],
      "name": "sendMessage",
      "outputs": [],
      "stateMutability": "nonpayable",
      "type": "function"
    },
    {
      "stateMutability": "payable",
      "type": "receive"
    }
  ],
  "bytecode": "0x60806040526000805534801561001457600080fd5b506155b980620000256000396000f3fe60806040526004361061010d5760003560e01c806373fc70b011610095578063b9a4134f11610064578063b9a4134f146103be578063ce43c032146103fb578063d7a1cfe114610438578063de6f24bb14610461578063f11143981461048a57610114565b806373fc70b0146102f057806380cee8a51461032d578063a24d41de14610356578063aed84e7b1461038157610114565b80632e2176f6116100dc5780632e2176f6146101f95780633056110014610236578063308837ed1461026157806359737a541461028a578063734ee8e5146102b357610114565b80630d8d57d61461011957806319289287146101565780631e9d48cf1461017f578063255e9c11146101bc57610114565b3661011457005b600080fd5b34801561012557600080fd5b50610140600480360381019061013b919061438a565b6104c7565b60405161014d9190614450565b60405180910390f35b34801561016257600080fd5b5061017d600480360381019061017891906144d7565b61059b565b005b34801561018b57600080fd5b506101a660048036038101906101a1919061438a565b610887565b6040516101b39190614573565b60405180910390f35b3480156101c857600080fd5b506101e360048036038101906101de919061438a565b6108f9565b6040516101f09190614712565b60405180910390f35b34801561020557600080fd5b50610220600480360381019061021b919061438a565b610a6c565b60405161022d91906149ba565b60405180910390f35b34801561024257600080fd5b5061024b610ea3565b60405161025891906149ba565b60405180910390f35b34801561026d57600080fd5b506102886004803603810190610283919061438a565b611298565b005b34801561029657600080fd5b506102b160048036038101906102ac9190614b0c565b611994565b005b3480156102bf57600080fd5b506102da60048036038101906102d5919061438a565b6121b4565b6040516102e79190614c94565b60405180910390f35b3480156102fc57600080fd5b506103176004803603810190610312919061438a565b612611565b6040516103249190614db5565b60405180910390f35b34801561033957600080fd5b50610354600480360381019061034f919061438a565b61279a565b005b34801561036257600080fd5b5061036b612e96565b6040516103789190614ef0565b60405180910390f35b34801561038d57600080fd5b506103a860048036038101906103a3919061438a565b61306f565b6040516103b59190614db5565b60405180910390f35b3480156103ca57600080fd5b506103e560048036038101906103e09190614f12565b6131f8565b6040516103f29190614573565b60405180910390f35b34801561040757600080fd5b50610422600480360381019061041d919061438a565b61332f565b60405161042f9190614450565b60405180910390f35b34801561044457600080fd5b5061045f600480360381019061045a919061438a565b613403565b005b34801561046d57600080fd5b5061048860048036038101906104839190614f52565b61362a565b005b34801561049657600080fd5b506104b160048036038101906104ac919061438a565b6137f5565b6040516104be91906149ba565b60405180910390f35b6060600160008373ffffffffffffffffffffffffffffffffffffffff1673ffffffffffffffffffffffffffffffffffffffff168152602001908152602001600020600401805461051690614fe1565b80601f016020809104026020016040519081016040528092919081815260200182805461054290614fe1565b801561058f5780601f106105645761010080835404028352916020019161058f565b820191906000526020600020905b81548152906001019060200180831161057257829003601f168201915b50505050509050919050565b600015156105a833610887565b1515146105ea576040517f08c379a00000000000000000000000000000000000000000000000000000000081526004016105e19061505f565b60405180910390fd5b60008484905011610630576040517f08c379a0000000000000000000000000000000000000000000000000000000008152600401610627906150cb565b60405180910390fd5b60008282905011610676576040517f08c379a000000000000000000000000000000000000000000000000000000000815260040161066d90615137565b60405180910390fd5b8383600160003373ffffffffffffffffffffffffffffffffffffffff1673ffffffffffffffffffffffffffffffffffffffff16815260200190815260200160002060000191906106c792919061403c565b508181600160003373ffffffffffffffffffffffffffffffffffffffff1673ffffffffffffffffffffffffffffffffffffffff168152602001908152602001600020600401919061071992919061403c565b506005604051806060016040528086868080601f016020809104026020016040519081016040528093929190818152602001838380828437600081840152601f19601f8201169050808301925050505050505081526020013373ffffffffffffffffffffffffffffffffffffffff16815260200184848080601f016020809104026020016040519081016040528093929190818152602001838380828437600081840152601f19601f820116905080830192505050505050508152509080600181540180825580915050600190039060005260206000209060030201600090919091909150600082015181600001908051906020019061081a9291906140c2565b5060208201518160010160006101000a81548173ffffffffffffffffffffffffffffffffffffffff021916908373ffffffffffffffffffffffffffffffffffffffff160217905550604082015181600201908051906020019061087e9291906140c2565b50505050505050565b60008060058054905011156108ef576000600160008473ffffffffffffffffffffffffffffffffffffffff1673ffffffffffffffffffffffffffffffffffffffff16815260200190815260200160002060000180546108e590614fe1565b90501190506108f4565b600090505b919050565b606060006109073384613cd1565b905060036000828152602001908152602001600020805480602002602001604051908101604052809291908181526020016000905b82821015610a6057838290600052602060002090600302016040518060600160405290816000820160009054906101000a900473ffffffffffffffffffffffffffffffffffffffff1673ffffffffffffffffffffffffffffffffffffffff1673ffffffffffffffffffffffffffffffffffffffff168152602001600182015481526020016002820180546109cf90614fe1565b80601f01602080910402602001604051908101604052809291908181526020018280546109fb90614fe1565b8015610a485780601f10610a1d57610100808354040283529160200191610a48565b820191906000526020600020905b815481529060010190602001808311610a2b57829003601f168201915b5050505050815250508152602001906001019061093c565b50505050915050919050565b6060600160008373ffffffffffffffffffffffffffffffffffffffff1673ffffffffffffffffffffffffffffffffffffffff168152602001908152602001600020600301805480602002602001604051908101604052809291908181526020016000905b82821015610e98578382906000526020600020906009020160405180610120016040529081600082018054610b0490614fe1565b80601f0160208091040260200160405190810160405280929190818152602001828054610b3090614fe1565b8015610b7d5780601f10610b5257610100808354040283529160200191610b7d565b820191906000526020600020905b815481529060010190602001808311610b6057829003601f168201915b505050505081526020016001820160009054906101000a900473ffffffffffffffffffffffffffffffffffffffff1673ffffffffffffffffffffffffffffffffffffffff1673ffffffffffffffffffffffffffffffffffffffff168152602001600282018054610bec90614fe1565b80601f0160208091040260200160405190810160405280929190818152602001828054610c1890614fe1565b8015610c655780601f10610c3a57610100808354040283529160200191610c65565b820191906000526020600020905b815481529060010190602001808311610c4857829003601f168201915b50505050508152602001600382018054610c7e90614fe1565b80601f0160208091040260200160405190810160405280929190818152602001828054610caa90614fe1565b8015610cf75780601f10610ccc57610100808354040283529160200191610cf7565b820191906000526020600020905b815481529060010190602001808311610cda57829003601f168201915b50505050508152602001600482018054610d1090614fe1565b80601f0160208091040260200160405190810160405280929190818152602001828054610d3c90614fe1565b8015610d895780601f10610d5e57610100808354040283529160200191610d89565b820191906000526020600020905b815481529060010190602001808311610d6c57829003601f168201915b5050505050815260200160058201548152602001600682015481526020016007820154815260200160088201805480602002602001604051908101604052809291908181526020016000905b82821015610e81578382906000526020600020018054610df490614fe1565b80601f0160208091040260200160405190810160405280929190818152602001828054610e2090614fe1565b8015610e6d5780601f10610e4257610100808354040283529160200191610e6d565b820191906000526020600020905b815481529060010190602001808311610e5057829003601f168201915b505050505081526020019060010190610dd5565b505050508152505081526020019060010190610ad0565b505050509050919050565b60606004805480602002602001604051908101604052809291908181526020016000905b8282101561128f578382906000526020600020906009020160405180610120016040529081600082018054610efb90614fe1565b80601f0160208091040260200160405190810160405280929190818152602001828054610f2790614fe1565b8015610f745780601f10610f4957610100808354040283529160200191610f74565b820191906000526020600020905b815481529060010190602001808311610f5757829003601f168201915b505050505081526020016001820160009054906101000a900473ffffffffffffffffffffffffffffffffffffffff1673ffffffffffffffffffffffffffffffffffffffff1673ffffffffffffffffffffffffffffffffffffffff168152602001600282018054610fe390614fe1565b80601f016020809104026020016040519081016040528092919081815260200182805461100f90614fe1565b801561105c5780601f106110315761010080835404028352916020019161105c565b820191906000526020600020905b81548152906001019060200180831161103f57829003601f168201915b5050505050815260200160038201805461107590614fe1565b80601f01602080910402602001604051908101604052809291908181526020018280546110a190614fe1565b80156110ee5780601f106110c3576101008083540402835291602001916110ee565b820191906000526020600020905b8154815290600101906020018083116110d157829003601f168201915b5050505050815260200160048201805461110790614fe1565b80601f016020809104026020016040519081016040528092919081815260200182805461113390614fe1565b80156111805780601f1061115557610100808354040283529160200191611180565b820191906000526020600020905b81548152906001019060200180831161116357829003601f168201915b5050505050815260200160058201548152602001600682015481526020016007820154815260200160088201805480602002602001604051908101604052809291908181526020016000905b828210156112785783829060005260206000200180546111eb90614fe1565b80601f016020809104026020016040519081016040528092919081815260200182805461121790614fe1565b80156112645780601f1061123957610100808354040283529160200191611264565b820191906000526020600020905b81548152906001019060200180831161124757829003601f168201915b5050505050815260200190600101906111cc565b505050508152505081526020019060010190610ec7565b50505050905090565b6000806000905060005b600160003373ffffffffffffffffffffffffffffffffffffffff1673ffffffffffffffffffffffffffffffffffffffff168152602001908152602001600020600101805490508110156113c7578373ffffffffffffffffffffffffffffffffffffffff16600160003373ffffffffffffffffffffffffffffffffffffffff1673ffffffffffffffffffffffffffffffffffffffff168152602001908152602001600020600101828154811061135a57611359615157565b5b906000526020600020906002020160000160009054906101000a900473ffffffffffffffffffffffffffffffffffffffff1673ffffffffffffffffffffffffffffffffffffffff1614156113b457809250600191506113c7565b80806113bf906151b5565b9150506112a2565b50801561160f57600160003373ffffffffffffffffffffffffffffffffffffffff1673ffffffffffffffffffffffffffffffffffffffff16815260200190815260200160002060010160018060003373ffffffffffffffffffffffffffffffffffffffff1673ffffffffffffffffffffffffffffffffffffffff1681526020019081526020016000206001018054905061146191906151fe565b8154811061147257611471615157565b5b9060005260206000209060020201600160003373ffffffffffffffffffffffffffffffffffffffff1673ffffffffffffffffffffffffffffffffffffffff16815260200190815260200160002060010183815481106114d4576114d3615157565b5b90600052602060002090600202016000820160009054906101000a900473ffffffffffffffffffffffffffffffffffffffff168160000160006101000a81548173ffffffffffffffffffffffffffffffffffffffff021916908373ffffffffffffffffffffffffffffffffffffffff160217905550600182018160010190805461155d90614fe1565b611568929190614148565b50905050600160003373ffffffffffffffffffffffffffffffffffffffff1673ffffffffffffffffffffffffffffffffffffffff1681526020019081526020016000206001018054806115be576115bd615232565b5b6001900381819060005260206000209060020201600080820160006101000a81549073ffffffffffffffffffffffffffffffffffffffff021916905560018201600061160a91906141d5565b505090555b6000806000905060005b600160008773ffffffffffffffffffffffffffffffffffffffff1673ffffffffffffffffffffffffffffffffffffffff1681526020019081526020016000206002018054905081101561173e573373ffffffffffffffffffffffffffffffffffffffff16600160008873ffffffffffffffffffffffffffffffffffffffff1673ffffffffffffffffffffffffffffffffffffffff16815260200190815260200160002060020182815481106116d1576116d0615157565b5b906000526020600020906002020160000160009054906101000a900473ffffffffffffffffffffffffffffffffffffffff1673ffffffffffffffffffffffffffffffffffffffff16141561172b578092506001915061173e565b8080611736906151b5565b915050611619565b50801561198d576000600160008773ffffffffffffffffffffffffffffffffffffffff1673ffffffffffffffffffffffffffffffffffffffff168152602001908152602001600020600201805490509050600160008773ffffffffffffffffffffffffffffffffffffffff1673ffffffffffffffffffffffffffffffffffffffff1681526020019081526020016000206002016001826117de91906151fe565b815481106117ef576117ee615157565b5b9060005260206000209060020201600160008873ffffffffffffffffffffffffffffffffffffffff1673ffffffffffffffffffffffffffffffffffffffff168152602001908152602001600020600201848154811061185157611850615157565b5b90600052602060002090600202016000820160009054906101000a900473ffffffffffffffffffffffffffffffffffffffff168160000160006101000a81548173ffffffffffffffffffffffffffffffffffffffff021916908373ffffffffffffffffffffffffffffffffffffffff16021790555060018201816001019080546118da90614fe1565b6118e5929190614148565b50905050600160008773ffffffffffffffffffffffffffffffffffffffff1673ffffffffffffffffffffffffffffffffffffffff16815260200190815260200160002060020180548061193b5761193a615232565b5b6001900381819060005260206000209060020201600080820160006101000a81549073ffffffffffffffffffffffffffffffffffffffff021916905560018201600061198791906141d5565b50509055505b5050505050565b61199d33610887565b6119dc576040517f08c379a00000000000000000000000000000000000000000000000000000000081526004016119d3906152ad565b60405180910390fd5b60008351116119ea57600080fd5b6000808154809291906119fc906151b5565b91905055506000604051806101200160405280600160003373ffffffffffffffffffffffffffffffffffffffff1673ffffffffffffffffffffffffffffffffffffffff1681526020019081526020016000206000018054611a5c90614fe1565b80601f0160208091040260200160405190810160405280929190818152602001828054611a8890614fe1565b8015611ad55780601f10611aaa57610100808354040283529160200191611ad5565b820191906000526020600020905b815481529060010190602001808311611ab857829003601f168201915b505050505081526020013373ffffffffffffffffffffffffffffffffffffffff16815260200185815260200184815260200183815260200160008152602001600054815260200160008152602001600067ffffffffffffffff811115611b3e57611b3d6149e1565b5b604051908082528060200260200182016040528015611b7157816020015b6060815260200190600190039081611b5c5790505b50815250905060005b600160003373ffffffffffffffffffffffffffffffffffffffff1673ffffffffffffffffffffffffffffffffffffffff16815260200190815260200160002060010180549050811015611dc15760026000600160003373ffffffffffffffffffffffffffffffffffffffff1673ffffffffffffffffffffffffffffffffffffffff1681526020019081526020016000206001018381548110611c1f57611c1e615157565b5b906000526020600020906002020160000160009054906101000a900473ffffffffffffffffffffffffffffffffffffffff1673ffffffffffffffffffffffffffffffffffffffff1673ffffffffffffffffffffffffffffffffffffffff1681526020019081526020016000208290806001815401808255809150506001900390600052602060002090600902016000909190919091506000820151816000019080519060200190611cd19291906140c2565b5060208201518160010160006101000a81548173ffffffffffffffffffffffffffffffffffffffff021916908373ffffffffffffffffffffffffffffffffffffffff1602179055506040820151816002019080519060200190611d359291906140c2565b506060820151816003019080519060200190611d529291906140c2565b506080820151816004019080519060200190611d6f9291906140c2565b5060a0820151816005015560c0820151816006015560e08201518160070155610100820151816008019080519060200190611dab929190614215565b5050508080611db9906151b5565b915050611b7a565b50600160003373ffffffffffffffffffffffffffffffffffffffff1673ffffffffffffffffffffffffffffffffffffffff1681526020019081526020016000206003018190806001815401808255809150506001900390600052602060002090600902016000909190919091506000820151816000019080519060200190611e4a9291906140c2565b5060208201518160010160006101000a81548173ffffffffffffffffffffffffffffffffffffffff021916908373ffffffffffffffffffffffffffffffffffffffff1602179055506040820151816002019080519060200190611eae9291906140c2565b506060820151816003019080519060200190611ecb9291906140c2565b506080820151816004019080519060200190611ee89291906140c2565b5060a0820151816005015560c0820151816006015560e08201518160070155610100820151816008019080519060200190611f24929190614215565b505050600260003373ffffffffffffffffffffffffffffffffffffffff1673ffffffffffffffffffffffffffffffffffffffff1681526020019081526020016000208190806001815401808255809150506001900390600052602060002090600902016000909190919091506000820151816000019080519060200190611fac9291906140c2565b5060208201518160010160006101000a81548173ffffffffffffffffffffffffffffffffffffffff021916908373ffffffffffffffffffffffffffffffffffffffff16021790555060408201518160020190805190602001906120109291906140c2565b50606082015181600301908051906020019061202d9291906140c2565b50608082015181600401908051906020019061204a9291906140c2565b5060a0820151816005015560c0820151816006015560e08201518160070155610100820151816008019080519060200190612086929190614215565b505050600481908060018154018082558091505060019003906000526020600020906009020160009091909190915060008201518160000190805190602001906120d19291906140c2565b5060208201518160010160006101000a81548173ffffffffffffffffffffffffffffffffffffffff021916908373ffffffffffffffffffffffffffffffffffffffff16021790555060408201518160020190805190602001906121359291906140c2565b5060608201518160030190805190602001906121529291906140c2565b50608082015181600401908051906020019061216f9291906140c2565b5060a0820151816005015560c0820151816006015560e082015181600701556101008201518160080190805190602001906121ab929190614215565b50505050505050565b6121bc614275565b600260008373ffffffffffffffffffffffffffffffffffffffff1673ffffffffffffffffffffffffffffffffffffffff1681526020019081526020016000206001600260008573ffffffffffffffffffffffffffffffffffffffff1673ffffffffffffffffffffffffffffffffffffffff1681526020019081526020016000208054905061224a91906151fe565b8154811061225b5761225a615157565b5b90600052602060002090600902016040518061012001604052908160008201805461228590614fe1565b80601f01602080910402602001604051908101604052809291908181526020018280546122b190614fe1565b80156122fe5780601f106122d3576101008083540402835291602001916122fe565b820191906000526020600020905b8154815290600101906020018083116122e157829003601f168201915b505050505081526020016001820160009054906101000a900473ffffffffffffffffffffffffffffffffffffffff1673ffffffffffffffffffffffffffffffffffffffff1673ffffffffffffffffffffffffffffffffffffffff16815260200160028201805461236d90614fe1565b80601f016020809104026020016040519081016040528092919081815260200182805461239990614fe1565b80156123e65780601f106123bb576101008083540402835291602001916123e6565b820191906000526020600020905b8154815290600101906020018083116123c957829003601f168201915b505050505081526020016003820180546123ff90614fe1565b80601f016020809104026020016040519081016040528092919081815260200182805461242b90614fe1565b80156124785780601f1061244d57610100808354040283529160200191612478565b820191906000526020600020905b81548152906001019060200180831161245b57829003601f168201915b5050505050815260200160048201805461249190614fe1565b80601f01602080910402602001604051908101604052809291908181526020018280546124bd90614fe1565b801561250a5780601f106124df5761010080835404028352916020019161250a565b820191906000526020600020905b8154815290600101906020018083116124ed57829003601f168201915b5050505050815260200160058201548152602001600682015481526020016007820154815260200160088201805480602002602001604051908101604052809291908181526020016000905b8282101561260257838290600052602060002001805461257590614fe1565b80601f01602080910402602001604051908101604052809291908181526020018280546125a190614fe1565b80156125ee5780601f106125c3576101008083540402835291602001916125ee565b820191906000526020600020905b8154815290600101906020018083116125d157829003601f168201915b505050505081526020019060010190612556565b50505050815250509050919050565b6060600160008373ffffffffffffffffffffffffffffffffffffffff1673ffffffffffffffffffffffffffffffffffffffff168152602001908152602001600020600101805480602002602001604051908101604052809291908181526020016000905b8282101561278f57838290600052602060002090600202016040518060400160405290816000820160009054906101000a900473ffffffffffffffffffffffffffffffffffffffff1673ffffffffffffffffffffffffffffffffffffffff1673ffffffffffffffffffffffffffffffffffffffff1681526020016001820180546126fe90614fe1565b80601f016020809104026020016040519081016040528092919081815260200182805461272a90614fe1565b80156127775780601f1061274c57610100808354040283529160200191612777565b820191906000526020600020905b81548152906001019060200180831161275a57829003601f168201915b50505050508152505081526020019060010190612675565b505050509050919050565b6000806000905060005b600160008573ffffffffffffffffffffffffffffffffffffffff1673ffffffffffffffffffffffffffffffffffffffff168152602001908152602001600020600101805490508110156128c9573373ffffffffffffffffffffffffffffffffffffffff16600160008673ffffffffffffffffffffffffffffffffffffffff1673ffffffffffffffffffffffffffffffffffffffff168152602001908152602001600020600101828154811061285c5761285b615157565b5b906000526020600020906002020160000160009054906101000a900473ffffffffffffffffffffffffffffffffffffffff1673ffffffffffffffffffffffffffffffffffffffff1614156128b657809250600191506128c9565b80806128c1906151b5565b9150506127a4565b508015612b1157600160008473ffffffffffffffffffffffffffffffffffffffff1673ffffffffffffffffffffffffffffffffffffffff16815260200190815260200160002060010160018060008673ffffffffffffffffffffffffffffffffffffffff1673ffffffffffffffffffffffffffffffffffffffff1681526020019081526020016000206001018054905061296391906151fe565b8154811061297457612973615157565b5b9060005260206000209060020201600160008573ffffffffffffffffffffffffffffffffffffffff1673ffffffffffffffffffffffffffffffffffffffff16815260200190815260200160002060010183815481106129d6576129d5615157565b5b90600052602060002090600202016000820160009054906101000a900473ffffffffffffffffffffffffffffffffffffffff168160000160006101000a81548173ffffffffffffffffffffffffffffffffffffffff021916908373ffffffffffffffffffffffffffffffffffffffff1602179055506001820181600101908054612a5f90614fe1565b612a6a929190614148565b50905050600160008473ffffffffffffffffffffffffffffffffffffffff1673ffffffffffffffffffffffffffffffffffffffff168152602001908152602001600020600101805480612ac057612abf615232565b5b6001900381819060005260206000209060020201600080820160006101000a81549073ffffffffffffffffffffffffffffffffffffffff0219169055600182016000612b0c91906141d5565b505090555b6000806000905060005b600160003373ffffffffffffffffffffffffffffffffffffffff1673ffffffffffffffffffffffffffffffffffffffff16815260200190815260200160002060020180549050811015612c40578573ffffffffffffffffffffffffffffffffffffffff16600160003373ffffffffffffffffffffffffffffffffffffffff1673ffffffffffffffffffffffffffffffffffffffff1681526020019081526020016000206002018281548110612bd357612bd2615157565b5b906000526020600020906002020160000160009054906101000a900473ffffffffffffffffffffffffffffffffffffffff1673ffffffffffffffffffffffffffffffffffffffff161415612c2d5780925060019150612c40565b8080612c38906151b5565b915050612b1b565b508015612e8f576000600160003373ffffffffffffffffffffffffffffffffffffffff1673ffffffffffffffffffffffffffffffffffffffff168152602001908152602001600020600201805490509050600160003373ffffffffffffffffffffffffffffffffffffffff1673ffffffffffffffffffffffffffffffffffffffff168152602001908152602001600020600201600182612ce091906151fe565b81548110612cf157612cf0615157565b5b9060005260206000209060020201600160003373ffffffffffffffffffffffffffffffffffffffff1673ffffffffffffffffffffffffffffffffffffffff1681526020019081526020016000206002018481548110612d5357612d52615157565b5b90600052602060002090600202016000820160009054906101000a900473ffffffffffffffffffffffffffffffffffffffff168160000160006101000a81548173ffffffffffffffffffffffffffffffffffffffff021916908373ffffffffffffffffffffffffffffffffffffffff1602179055506001820181600101908054612ddc90614fe1565b612de7929190614148565b50905050600160003373ffffffffffffffffffffffffffffffffffffffff1673ffffffffffffffffffffffffffffffffffffffff168152602001908152602001600020600201805480612e3d57612e3c615232565b5b6001900381819060005260206000209060020201600080820160006101000a81549073ffffffffffffffffffffffffffffffffffffffff0219169055600182016000612e8991906141d5565b50509055505b5050505050565b60606005805480602002602001604051908101604052809291908181526020016000905b828210156130665783829060005260206000209060030201604051806060016040529081600082018054612eed90614fe1565b80601f0160208091040260200160405190810160405280929190818152602001828054612f1990614fe1565b8015612f665780601f10612f3b57610100808354040283529160200191612f66565b820191906000526020600020905b815481529060010190602001808311612f4957829003601f168201915b505050505081526020016001820160009054906101000a900473ffffffffffffffffffffffffffffffffffffffff1673ffffffffffffffffffffffffffffffffffffffff1673ffffffffffffffffffffffffffffffffffffffff168152602001600282018054612fd590614fe1565b80601f016020809104026020016040519081016040528092919081815260200182805461300190614fe1565b801561304e5780601f106130235761010080835404028352916020019161304e565b820191906000526020600020905b81548152906001019060200180831161303157829003601f168201915b50505050508152505081526020019060010190612eba565b50505050905090565b6060600160008373ffffffffffffffffffffffffffffffffffffffff1673ffffffffffffffffffffffffffffffffffffffff168152602001908152602001600020600201805480602002602001604051908101604052809291908181526020016000905b828210156131ed57838290600052602060002090600202016040518060400160405290816000820160009054906101000a900473ffffffffffffffffffffffffffffffffffffffff1673ffffffffffffffffffffffffffffffffffffffff1673ffffffffffffffffffffffffffffffffffffffff16815260200160018201805461315c90614fe1565b80601f016020809104026020016040519081016040528092919081815260200182805461318890614fe1565b80156131d55780601f106131aa576101008083540402835291602001916131d5565b820191906000526020600020905b8154815290600101906020018083116131b857829003601f168201915b505050505081525050815260200190600101906130d3565b505050509050919050565b600080600090505b600160008473ffffffffffffffffffffffffffffffffffffffff1673ffffffffffffffffffffffffffffffffffffffff16815260200190815260200160002060010180549050811015613323578373ffffffffffffffffffffffffffffffffffffffff16600160008573ffffffffffffffffffffffffffffffffffffffff1673ffffffffffffffffffffffffffffffffffffffff16815260200190815260200160002060010182815481106132b8576132b7615157565b5b906000526020600020906002020160000160009054906101000a900473ffffffffffffffffffffffffffffffffffffffff1673ffffffffffffffffffffffffffffffffffffffff161415613310576001915050613329565b808061331b906151b5565b915050613200565b50600090505b92915050565b6060600160008373ffffffffffffffffffffffffffffffffffffffff1673ffffffffffffffffffffffffffffffffffffffff168152602001908152602001600020600001805461337e90614fe1565b80601f01602080910402602001604051908101604052809291908181526020018280546133aa90614fe1565b80156133f75780601f106133cc576101008083540402835291602001916133f7565b820191906000526020600020905b8154815290600101906020018083116133da57829003601f168201915b50505050509050919050565b61340c33610887565b61344b576040517f08c379a000000000000000000000000000000000000000000000000000000000815260040161344290615319565b60405180910390fd5b61345481610887565b613493576040517f08c379a000000000000000000000000000000000000000000000000000000000815260040161348a90615385565b60405180910390fd5b8073ffffffffffffffffffffffffffffffffffffffff163373ffffffffffffffffffffffffffffffffffffffff161415613502576040517f08c379a00000000000000000000000000000000000000000000000000000000081526004016134f990615417565b60405180910390fd5b6000151561351033836131f8565b151514613552576040517f08c379a000000000000000000000000000000000000000000000000000000000815260040161354990615483565b60405180910390fd5b6136278133600160003373ffffffffffffffffffffffffffffffffffffffff1673ffffffffffffffffffffffffffffffffffffffff16815260200190815260200160002060000180546135a490614fe1565b80601f01602080910402602001604051908101604052809291908181526020018280546135d090614fe1565b801561361d5780601f106135f25761010080835404028352916020019161361d565b820191906000526020600020905b81548152906001019060200180831161360057829003601f168201915b5050505050613d69565b50565b61363333610887565b613672576040517f08c379a000000000000000000000000000000000000000000000000000000000815260040161366990615319565b60405180910390fd5b61367b83610887565b6136ba576040517f08c379a00000000000000000000000000000000000000000000000000000000081526004016136b1906154ef565b60405180910390fd5b60006136c63385613cd1565b9050600060405180606001604052803373ffffffffffffffffffffffffffffffffffffffff16815260200142815260200185858080601f016020809104026020016040519081016040528093929190818152602001838380828437600081840152601f19601f8201169050808301925050505050505081525090506003600083815260200190815260200160002081908060018154018082558091505060019003906000526020600020906003020160009091909190915060008201518160000160006101000a81548173ffffffffffffffffffffffffffffffffffffffff021916908373ffffffffffffffffffffffffffffffffffffffff1602179055506020820151816001015560408201518160020190805190602001906137eb9291906140c2565b5050505050505050565b60606000600260008473ffffffffffffffffffffffffffffffffffffffff1673ffffffffffffffffffffffffffffffffffffffff168152602001908152602001600020805490501115613c7457600260008373ffffffffffffffffffffffffffffffffffffffff1673ffffffffffffffffffffffffffffffffffffffff168152602001908152602001600020805480602002602001604051908101604052809291908181526020016000905b82821015613c695783829060005260206000209060090201604051806101200160405290816000820180546138d590614fe1565b80601f016020809104026020016040519081016040528092919081815260200182805461390190614fe1565b801561394e5780601f106139235761010080835404028352916020019161394e565b820191906000526020600020905b81548152906001019060200180831161393157829003601f168201915b505050505081526020016001820160009054906101000a900473ffffffffffffffffffffffffffffffffffffffff1673ffffffffffffffffffffffffffffffffffffffff1673ffffffffffffffffffffffffffffffffffffffff1681526020016002820180546139bd90614fe1565b80601f01602080910402602001604051908101604052809291908181526020018280546139e990614fe1565b8015613a365780601f10613a0b57610100808354040283529160200191613a36565b820191906000526020600020905b815481529060010190602001808311613a1957829003601f168201915b50505050508152602001600382018054613a4f90614fe1565b80601f0160208091040260200160405190810160405280929190818152602001828054613a7b90614fe1565b8015613ac85780601f10613a9d57610100808354040283529160200191613ac8565b820191906000526020600020905b815481529060010190602001808311613aab57829003601f168201915b50505050508152602001600482018054613ae190614fe1565b80601f0160208091040260200160405190810160405280929190818152602001828054613b0d90614fe1565b8015613b5a5780601f10613b2f57610100808354040283529160200191613b5a565b820191906000526020600020905b815481529060010190602001808311613b3d57829003601f168201915b5050505050815260200160058201548152602001600682015481526020016007820154815260200160088201805480602002602001604051908101604052809291908181526020016000905b82821015613c52578382906000526020600020018054613bc590614fe1565b80601f0160208091040260200160405190810160405280929190818152602001828054613bf190614fe1565b8015613c3e5780601f10613c1357610100808354040283529160200191613c3e565b820191906000526020600020905b815481529060010190602001808311613c2157829003601f168201915b505050505081526020019060010190613ba6565b5050505081525050815260200190600101906138a1565b505050509050613ccc565b600067ffffffffffffffff811115613c8f57613c8e6149e1565b5b604051908082528060200260200182016040528015613cc857816020015b613cb5614275565b815260200190600190039081613cad5790505b5090505b919050565b60008173ffffffffffffffffffffffffffffffffffffffff168373ffffffffffffffffffffffffffffffffffffffff161015613d37578282604051602001613d1a929190615557565b604051602081830303815290604052805190602001209050613d63565b8183604051602001613d4a929190615557565b6040516020818303038152906040528051906020012090505b92915050565b600060405180604001604052808473ffffffffffffffffffffffffffffffffffffffff168152602001838152509050600160008573ffffffffffffffffffffffffffffffffffffffff1673ffffffffffffffffffffffffffffffffffffffff16815260200190815260200160002060010181908060018154018082558091505060019003906000526020600020906002020160009091909190915060008201518160000160006101000a81548173ffffffffffffffffffffffffffffffffffffffff021916908373ffffffffffffffffffffffffffffffffffffffff1602179055506020820151816001019080519060200190613e679291906140c2565b505050600060405180604001604052808673ffffffffffffffffffffffffffffffffffffffff168152602001600160008873ffffffffffffffffffffffffffffffffffffffff1673ffffffffffffffffffffffffffffffffffffffff1681526020019081526020016000206000018054613ee090614fe1565b80601f0160208091040260200160405190810160405280929190818152602001828054613f0c90614fe1565b8015613f595780601f10613f2e57610100808354040283529160200191613f59565b820191906000526020600020905b815481529060010190602001808311613f3c57829003601f168201915b50505050508152509050600160008573ffffffffffffffffffffffffffffffffffffffff1673ffffffffffffffffffffffffffffffffffffffff16815260200190815260200160002060020181908060018154018082558091505060019003906000526020600020906002020160009091909190915060008201518160000160006101000a81548173ffffffffffffffffffffffffffffffffffffffff021916908373ffffffffffffffffffffffffffffffffffffffff16021790555060208201518160010190805190602001906140329291906140c2565b5050505050505050565b82805461404890614fe1565b90600052602060002090601f01602090048101928261406a57600085556140b1565b82601f1061408357803560ff19168380011785556140b1565b828001600101855582156140b1579182015b828111156140b0578235825591602001919060010190614095565b5b5090506140be91906142d7565b5090565b8280546140ce90614fe1565b90600052602060002090601f0160209004810192826140f05760008555614137565b82601f1061410957805160ff1916838001178555614137565b82800160010185558215614137579182015b8281111561413657825182559160200191906001019061411b565b5b50905061414491906142d7565b5090565b82805461415490614fe1565b90600052602060002090601f01602090048101928261417657600085556141c4565b82601f1061418757805485556141c4565b828001600101855582156141c457600052602060002091601f016020900482015b828111156141c35782548255916001019190600101906141a8565b5b5090506141d191906142d7565b5090565b5080546141e190614fe1565b6000825580601f106141f35750614212565b601f01602090049060005260206000209081019061421191906142d7565b5b50565b828054828255906000526020600020908101928215614264579160200282015b828111156142635782518290805190602001906142539291906140c2565b5091602001919060010190614235565b5b50905061427191906142f4565b5090565b60405180610120016040528060608152602001600073ffffffffffffffffffffffffffffffffffffffff168152602001606081526020016060815260200160608152602001600081526020016000815260200160008152602001606081525090565b5b808211156142f05760008160009055506001016142d8565b5090565b5b80821115614314576000818161430b91906141d5565b506001016142f5565b5090565b6000604051905090565b600080fd5b600080fd5b600073ffffffffffffffffffffffffffffffffffffffff82169050919050565b60006143578261432c565b9050919050565b6143678161434c565b811461437257600080fd5b50565b6000813590506143848161435e565b92915050565b6000602082840312156143a05761439f614322565b5b60006143ae84828501614375565b91505092915050565b600081519050919050565b600082825260208201905092915050565b60005b838110156143f15780820151818401526020810190506143d6565b83811115614400576000848401525b50505050565b6000601f19601f8301169050919050565b6000614422826143b7565b61442c81856143c2565b935061443c8185602086016143d3565b61444581614406565b840191505092915050565b6000602082019050818103600083015261446a8184614417565b905092915050565b600080fd5b600080fd5b600080fd5b60008083601f84011261449757614496614472565b5b8235905067ffffffffffffffff8111156144b4576144b3614477565b5b6020830191508360018202830111156144d0576144cf61447c565b5b9250929050565b600080600080604085870312156144f1576144f0614322565b5b600085013567ffffffffffffffff81111561450f5761450e614327565b5b61451b87828801614481565b9450945050602085013567ffffffffffffffff81111561453e5761453d614327565b5b61454a87828801614481565b925092505092959194509250565b60008115159050919050565b61456d81614558565b82525050565b60006020820190506145886000830184614564565b92915050565b600081519050919050565b600082825260208201905092915050565b6000819050602082019050919050565b6145c38161434c565b82525050565b6000819050919050565b6145dc816145c9565b82525050565b600082825260208201905092915050565b60006145fe826143b7565b61460881856145e2565b93506146188185602086016143d3565b61462181614406565b840191505092915050565b600060608301600083015161464460008601826145ba565b50602083015161465760208601826145d3565b506040830151848203604086015261466f82826145f3565b9150508091505092915050565b6000614688838361462c565b905092915050565b6000602082019050919050565b60006146a88261458e565b6146b28185614599565b9350836020820285016146c4856145aa565b8060005b8581101561470057848403895281516146e1858261467c565b94506146ec83614690565b925060208a019950506001810190506146c8565b50829750879550505050505092915050565b6000602082019050818103600083015261472c818461469d565b905092915050565b600081519050919050565b600082825260208201905092915050565b6000819050602082019050919050565b600061476b8261432c565b9050919050565b61477b81614760565b82525050565b600081519050919050565b600082825260208201905092915050565b6000819050602082019050919050565b60006147b983836145f3565b905092915050565b6000602082019050919050565b60006147d982614781565b6147e3818561478c565b9350836020820285016147f58561479d565b8060005b85811015614831578484038952815161481285826147ad565b945061481d836147c1565b925060208a019950506001810190506147f9565b50829750879550505050505092915050565b600061012083016000830151848203600086015261486182826145f3565b91505060208301516148766020860182614772565b506040830151848203604086015261488e82826145f3565b915050606083015184820360608601526148a882826145f3565b915050608083015184820360808601526148c282826145f3565b91505060a08301516148d760a08601826145d3565b5060c08301516148ea60c08601826145d3565b5060e08301516148fd60e08601826145d3565b5061010083015184820361010086015261491782826147ce565b9150508091505092915050565b60006149308383614843565b905092915050565b6000602082019050919050565b600061495082614734565b61495a818561473f565b93508360208202850161496c85614750565b8060005b858110156149a857848403895281516149898582614924565b945061499483614938565b925060208a01995050600181019050614970565b50829750879550505050505092915050565b600060208201905081810360008301526149d48184614945565b905092915050565b600080fd5b7f4e487b7100000000000000000000000000000000000000000000000000000000600052604160045260246000fd5b614a1982614406565b810181811067ffffffffffffffff82111715614a3857614a376149e1565b5b80604052505050565b6000614a4b614318565b9050614a578282614a10565b919050565b600067ffffffffffffffff821115614a7757614a766149e1565b5b614a8082614406565b9050602081019050919050565b82818337600083830152505050565b6000614aaf614aaa84614a5c565b614a41565b905082815260208101848484011115614acb57614aca6149dc565b5b614ad6848285614a8d565b509392505050565b600082601f830112614af357614af2614472565b5b8135614b03848260208601614a9c565b91505092915050565b600080600060608486031215614b2557614b24614322565b5b600084013567ffffffffffffffff811115614b4357614b42614327565b5b614b4f86828701614ade565b935050602084013567ffffffffffffffff811115614b7057614b6f614327565b5b614b7c86828701614ade565b925050604084013567ffffffffffffffff811115614b9d57614b9c614327565b5b614ba986828701614ade565b9150509250925092565b6000610120830160008301518482036000860152614bd182826145f3565b9150506020830151614be66020860182614772565b5060408301518482036040860152614bfe82826145f3565b91505060608301518482036060860152614c1882826145f3565b91505060808301518482036080860152614c3282826145f3565b91505060a0830151614c4760a08601826145d3565b5060c0830151614c5a60c08601826145d3565b5060e0830151614c6d60e08601826145d3565b50610100830151848203610100860152614c8782826147ce565b9150508091505092915050565b60006020820190508181036000830152614cae8184614bb3565b905092915050565b600081519050919050565b600082825260208201905092915050565b6000819050602082019050919050565b6000604083016000830151614cfa60008601826145ba565b5060208301518482036020860152614d1282826145f3565b9150508091505092915050565b6000614d2b8383614ce2565b905092915050565b6000602082019050919050565b6000614d4b82614cb6565b614d558185614cc1565b935083602082028501614d6785614cd2565b8060005b85811015614da35784840389528151614d848582614d1f565b9450614d8f83614d33565b925060208a01995050600181019050614d6b565b50829750879550505050505092915050565b60006020820190508181036000830152614dcf8184614d40565b905092915050565b600081519050919050565b600082825260208201905092915050565b6000819050602082019050919050565b60006060830160008301518482036000860152614e2082826145f3565b9150506020830151614e3560208601826145ba565b5060408301518482036040860152614e4d82826145f3565b9150508091505092915050565b6000614e668383614e03565b905092915050565b6000602082019050919050565b6000614e8682614dd7565b614e908185614de2565b935083602082028501614ea285614df3565b8060005b85811015614ede5784840389528151614ebf8582614e5a565b9450614eca83614e6e565b925060208a01995050600181019050614ea6565b50829750879550505050505092915050565b60006020820190508181036000830152614f0a8184614e7b565b905092915050565b60008060408385031215614f2957614f28614322565b5b6000614f3785828601614375565b9250506020614f4885828601614375565b9150509250929050565b600080600060408486031215614f6b57614f6a614322565b5b6000614f7986828701614375565b935050602084013567ffffffffffffffff811115614f9a57614f99614327565b5b614fa686828701614481565b92509250509250925092565b7f4e487b7100000000000000000000000000000000000000000000000000000000600052602260045260246000fd5b60006002820490506001821680614ff957607f821691505b6020821081141561500d5761500c614fb2565b5b50919050565b7f5573657220616c726564792068617320616e206163636f756e74210000000000600082015250565b6000615049601b836143c2565b915061505482615013565b602082019050919050565b600060208201905081810360008301526150788161503c565b9050919050565b7f55736572206e616d652073686f756c64206e6f7420626520656d707479210000600082015250565b60006150b5601e836143c2565b91506150c08261507f565b602082019050919050565b600060208201905081810360008301526150e4816150a8565b9050919050565b7f50726f66696c65207069632073686f756c64206e6f7420626520656d70747900600082015250565b6000615121601f836143c2565b915061512c826150eb565b602082019050919050565b6000602082019050818103600083015261515081615114565b9050919050565b7f4e487b7100000000000000000000000000000000000000000000000000000000600052603260045260246000fd5b7f4e487b7100000000000000000000000000000000000000000000000000000000600052601160045260246000fd5b60006151c0826145c9565b91507fffffffffffffffffffffffffffffffffffffffffffffffffffffffffffffffff8214156151f3576151f2615186565b5b600182019050919050565b6000615209826145c9565b9150615214836145c9565b92508282101561522757615226615186565b5b828203905092915050565b7f4e487b7100000000000000000000000000000000000000000000000000000000600052603160045260246000fd5b7f55736572206e6f74207265676973746572656421000000000000000000000000600082015250565b60006152976014836143c2565b91506152a282615261565b602082019050919050565b600060208201905081810360008301526152c68161528a565b9050919050565b7f43726561746520616e206163636f756e74206669727374000000000000000000600082015250565b60006153036017836143c2565b915061530e826152cd565b602082019050919050565b60006020820190508181036000830152615332816152f6565b9050919050565b7f55736572206973206e6f74207265676973746572656421000000000000000000600082015250565b600061536f6017836143c2565b915061537a82615339565b602082019050919050565b6000602082019050818103600083015261539e81615362565b9050919050565b7f55736572732063616e6e6f7420616464207468656d6573656c7665732061732060008201527f667269656e647300000000000000000000000000000000000000000000000000602082015250565b60006154016027836143c2565b915061540c826153a5565b604082019050919050565b60006020820190508181036000830152615430816153f4565b9050919050565b7f54686573652075736572732061726520616c726561647920667269656e647300600082015250565b600061546d601f836143c2565b915061547882615437565b602082019050919050565b6000602082019050818103600083015261549c81615460565b9050919050565b7f55736572206973206e6f74207265676973746572656400000000000000000000600082015250565b60006154d96016836143c2565b91506154e4826154a3565b602082019050919050565b60006020820190508181036000830152615508816154cc565b9050919050565b60008160601b9050919050565b60006155278261550f565b9050919050565b60006155398261551c565b9050919050565b61555161554c8261434c565b61552e565b82525050565b60006155638285615540565b6014820191506155738284615540565b601482019150819050939250505056fea264697066735822122060e0e8bd1aa67759f4d718b251df27bf7928ef4c809ccb2266d092485e4ee41b64736f6c63430008090033",
  "linkReferences": {},
  "deployedLinkReferences": {}
}